S014000046726565646F6D5F416363656C2E6865787F
S113000000300020F9060000290700003507000031
S113001035070000350700003507000035070000EC
S113002035070000350700003507000035070000DC
S113003035070000350700003507000035070000CC
S113004035070000350700003507000035070000BC
S113005035070000350700003507000035070000AC
S1130060E1090000350700003507000035070000EE
S1130070350700003507000035070000350700008C
S1130080350700003507000035070000350700007C
S1130090350700003507000035070000350700006C
S11300A0350700003507000035070000350700005C
S11300B0350700003507000035070000350700004C
S1130410002934D00123002210B488422CD30124B3
S11304202407A14204D2814202D209011B01F8E748
S1130430E400A14204D2814202D249005B00F8E701
S1130440884201D3401A1A434C08A04202D3001B2D
S11304505C0822438C08A04202D3001B9C08224360
S1130460CC08A04202D3001BDC082243002803D09E
S11304701B0901D00909E3E7101C10BC70470028D0
S113048001D00020C04307B4024802A140180290E2
S113049003BDC046190000000029F0D003B5FFF7E2
S11304A0B9FF0EBC4243891A1847C0467047C0467C
S11304B080B500AFBD4680BD80B584B000AF786024
S11304C07B68FB60FB6801225A70BD4604B080BDA6
S11304D080B584B000AF78607B68FB60FB68012264
S11304E01A70BD4604B080BD80B582B000AF78609C
S11304F0BD4602B080BDC04680B584B000AF39604F
S1130500FB1D011C19703B1D1A80214B5A68FB1DF1
S1130510101C191C0122002300F070FC031C1A1C7F
S11305203B1C0F331A703B1C0F331B78002B01D07C
S11305301B2329E0C046164B5B78DBB2002BFAD0B4
S1130540134B00225A70124B59683B1D1B883A68A2
S1130550081C111C1A1C012300F01CFD031C1A1C8E
S11305603B1C0F331A703B1C0F331B78002B01D03C
S11305701B2309E0C046064B1B78DBB2002BFAD0E4
S1130580034B00221A700023181CBD4604B080BD22
S11305900000002080B584B000AF0A1CFB1D011CC4
S11305A01970BB1D1A703B1C0C33FA1D12781A709B
S11305B03B1C0C33BA1D12785A70124B5A683B1C00
S11305C00C33101C191C0222012300F017FC031C1D
S11305D01A1C3B1C0F331A703B1C0F331B78002B67
S11305E001D01B2309E0C046064B5B78DBB2002B2D
S11305F0FAD0044B00225A700023181CBD4604B0E4
S113060080BDC0460000002090B583B000AF00F06C
S11306108DFD00F0B7FD00F0E1FD254B181C00F046
S11306203DFB021C224B5A60FC1D2A200321FFF7CC
S1130630B1FF031C2370FB1D1B78002B2AD1FC1D6A
S11306401C4B0120191C0322FFF756FF031C2370C7
S1130650184B1A78012352B2322A00DC0023DBB291
S1130660181C00F07DFD134B5A78012352B2322A34
S113067000DC0023DBB2181C00F09EFD0D4B9A78C1
S1130680012352B2322A00DC0023DBB2181C00F032
S1130690BFFDD4E7064B5B68181C00F08FFB00F02D
S11306A04FFD00F079FD00F0A3FDBD4603B090BD01
S11306B0000000200800002080B500AF00F0B6F86C
S11306C0FFF7A2FFFEE7C04680B582B000AF7860B6
S11306D0FEE7C04680B500AF054A064BD31A054A6B
S11306E0101C00211A1C00F0C1FDBD4680BDC0468F
S11306F0580000200000002001F09AF900F020F8D2
S1130700FFF7E8FF01F070F901F00AF901F09EF932
S1130710044B0020191CFFF7CFFF031C181C00F02A
S113072089FDC0460C00002080B500AFFFF7C0FE75
S1130730BD4680BD80B500AFFFBEBD4680BDC0468E
S113074080B500AF2D4A2E492E4BD1502E4A882316
S11307505B010021D1502C4A2B492C4BCB588821CA
S113076089011943294BD150274A294B0021D150E3
S1130770254A2549274BCB58191C274B1940254B93
S1130780D150214B204A1268111C244A0A401A6095
S11307901D4A1D491F4BCB58191C214B0B4080216E
S11307A0490419431B4BD1501E4B06221A701D4B92
S11307B000225A701B4B1B4AD278D1B21F220A4026
S11307C0D2B2DA70184B80221A70164B00221A71BA
S11307D0144B00225A71C046124B9B79DBB21A1C8F
S11307E010231340F8D0C0460E4B9B79DBB21A1C81
S11307F00C231340F8D1BD4680BDC04600E000E0A4
S113080000000000080D00000070044038100000D3
S11308104410000004100000FFFFFEFFFFFFF3FF81
S1130820FFFFFFFC004006400050064080B500AFCB
S11308302F4B2F4A1269111C2E4A0A40E021C9008D
S11308400A431A612C4B2C4A5279D2B21F218A4393
S1130850D2B25A71284B284A1279D2B207218A435C
S1130860D2B21A71254B254A1278D2B2D2B2732170
S11308708A43D2B250210A43D2B2D2B21A701F4B69
S11308801E4A5278D2B2D2B263218A43D2B24021F4
S11308900A43D2B2D2B25A70184B184A9278D2B2E2
S11308A019218A43D2B29A70154B00221A70104B48
S11308B00F4A126D111C0F4A0A40E021C9000A4375
S11308C01A65104A0F49C1239B00CB58191C0E4BC3
S11308D01940C1239B00D150002000F017F800F00C
S11308E039FC00F063FC00F08DFC62B6BD4680BDAF
S11308F000900440FFF8FFFE00F0074000D00740DE
S113090000E0074000E100E0FFFF00FF80B584B095
S113091000AF78601C4BFB60FB687A681A601B4B65
S11309201A4A1268111C1A4A0A401A60174B174ACD
S11309305269E021C9030A435A61164B154A126DE4
S1130940111C154A0A40802149000A431A65114BBB
S1130950104A526D111C104A0A40802149000A4372
S11309605A650C4B0B4A926D111C0B4A0A408021AC
S113097049000A439A65094BFA681A60FB68181C17
S1130980BD4604B080BDC0461400002000F10F40F5
S1130990FFFF8FFF00D00440FFF8FFFE340000206B
S11309A080B582B000AF78603960044B3968E022CA
S11309B0D2030A409A60BD4602B080BD00F10FF830
S11309C080B582B000AF78603960044B3968E022AA
S11309D0D2030A405A60BD4602B080BD00F10FF850
S11309E090B583B000AFAB4B1B683B60BB1D0022CE
S11309F01A80A94BDB78DCB2A74BA74AD278D2B2D3
S1130A00D2B212218A43D1B2E2B20A43D2B2D2B2F2
S1130A10DA70A14B9B78DBB21A1C2023134000D15F
S1130A2001E19D4B9B78DBB21A1C1023134000D1CB
S1130A30B8E0221C01231340DBB2002B2AD0964BD2
S1130A40954A9278D2B220218A43D2B29A70924BBC
S1130A50914A9278D2B210218A43D2B29A703B68FA
S1130A6000229A813B680022DA803B681B780122CD
S1130A709343DAB23B681A703B681B78062213432F
S1130A80DAB23B681A70BB1DBA1D128808210A43EA
S1130A901A80EAE03B681B781A1C0223134000D139
S1130AA074E03B689B89002B0ED03B689B89013B1B
S1130AB09AB23B689A81784A3B681B69197811712C
S1130AC05A1C3B681A61D0E03B68DB88002B3CD0A1
S1130AD03B681B781A1C042313401FD03B68DB8837
S1130AE0012B08D16C4B6C4A9278D2B208210A438C
S1130AF0D2B29A7007E0684B674A9278D2B2082162
S1130B008A43D2B29A70644B634A9278D2B210216B
S1130B108A43D2B29A70604B1B79A6E05E4B5E4A60
S1130B209278D2B204210A43D2B29A705A4B3A68EC
S1130B30527901210A43D2B21A713B681B7804220C
S1130B401343DAB23B681A708FE03B681B780122CA
S1130B509343DAB23B681A703B685B78012B0FD180
S1130B604D4B4D4A9278D2B220218A43D2B29A7028
S1130B70494B494A9278D2B210218A43D2B29A7030
S1130B803B685B69181CFFF797FC6EE0424B3A68C0
S1130B9012791A713B681B7802221343DAB23B685C
S1130BA01A7062E03B68DB88013B9AB23B68DA80EA
S1130BB03B68DB88002B0CD03B68DB88012B1FD102
S1130BC0354B354A9278D2B208210A43D2B29A7090
S1130BD016E03B681B7801229343DAB23B681A7033
S1130BE02D4B2D4A9278D2B220218A43D2B29A70E8
S1130BF0294B294A9278D2B208218A43D2B29A70F8
S1130C003B689B68244A1279D2B21A705A1C3B681A
S1130C109A603B68DB88002B27D13B685B69181C12
S1130C20FFF756FC21E0221C102313401DD03B6823
S1130C3000229A813B680022DA803B6801225A70C4
S1130C403B681B7801229343DAB23B681A70124B5B
S1130C50114A9278D2B210218A43D2B29A70BB1D43
S1130C60BA1D128804210A431A80BB1D1B88002B5D
S1130C700CD03B685A88BB1D1B8813439AB23B684F
S1130C805A803B685B69181CFFF72EFCBD4603B015
S1130C9090BDC046300000200060064080B584B09E
S1130CA000AF78603C4BFB60FB687A685A613B4B51
S1130CB0FA681A60FB6820221A70FB683A221A71DB
S1130CC0FB6801225A70FB680022DA80FB6800226C
S1130CD09A81FB6800225A80314A3149314BCB5802
S1130CE0402119432F4BD1502F4B00229A702E4B89
S1130CF040229A712C4B0222DA702C4B2B4A526EF2
S1130D00111C2B4A0A40A021C9000A435A66274BEA
S1130D10264A126E111C264A0A40A021C9000A4321
S1130D201A66244A2349C2239B00CB58FF218B43D4
S1130D3080211943C2239B00D1501E4B1D4A1268C7
S1130D40802149000A431A60174B00225A71164B3E
S1130D5000229A71144B08221A72134B00225A7003
S1130D60114B114A9278D2B2D2B2802149420A433D
S1130D70D2B2D2B29A700C4B0B4A9278D2B24021C2
S1130D800A43D2B29A700C4BFA685A60FB68181C7A
S1130D90BD4604B080BDC0461800002030000020CD
S1130DA000700440341000000060064000D004408D
S1130DB0FFF8FFFE00E100E03400002080B582B0BF
S1130DC000AF7860094B00229A70094B00225A60E8
S1130DD0084A0849084BCB584021181C8843011C79
S1130DE0054BD150BD4602B080BDC04600600640F0
S1130DF034000020007004403410000080B586B038
S1130E0000AFF860B960111C1A1CBB1D19807B1D52
S1130E101A70FB687B61BB1D1B88002B01D100236A
S1130E20AEE07B695B78012B14D1574BDB78DBB2E6
S1130E301A1C202313400BD17B691B781A1C012335
S1130E401340DBB2002B03D17B699B89002B0FD0AD
S1130E50082395E07B691B781A1C01231340DBB23D
S1130E60002B03D17B699B89002B01D0082387E0E9
S1130E70464B1B78DBB20133DBB2444A191C1170B8
S1130E80012B04D1424BEFF3108072B618707B69CA
S1130E901B7801221343DAB27B691A707B69BA6842
S1130EA01A617B69BA1D12889A817B697A1D12784E
S1130EB05A70354B344A9278D2B2D2B210210A43D6
S1130EC0D2B2D2B29A70304B9B78DBB21A1C202378
S1130ED0134008D02C4B2C4A9278D2B204210A43F6
S1130EE0D2B29A7009E0284B274A9278D2B2D2B291
S1130EF020210A43D2B2D2B29A707B691B781A1CA1
S1130F00202313400BD07B691B7806221343DAB2EB
S1130F107B691A701C4B7A6912791A7121E07B691A
S1130F201B781A1C102313400BD07B691B780622F4
S1130F309343DAB27B691A70134B7A6952791A7146
S1130F400FE07B691B781A1C0823134009D07B69C6
S1130F501B7802221343DAB27B691A700A4B00220F
S1130F601A710A4B1B78DBB2013BDBB2074A191C2E
S1130F701170002B03D1064B187880F310880023DE
S1130F80181CBD4606B080BD00600640100000205D
S1130F905400002080B586B000AFF860B960111C21
S1130FA01A1CBB1D19807B1D1A70FB687B61BB1D5D
S1130FB01B88002B01D10023AEE07B1D1B78002B86
S1130FC001D18123A8E07B691B781A1C08231340F4
S1130FD001D00923A0E07B695B78012B14D1504B2D
S1130FE0DB78DBB21A1C202313400BD17B691B78FE
S1130FF01A1C01231340DBB2002B03D17B69DB886D
S1131000002B0FD0082387E07B691B781A1C01236F
S11310101340DBB2002B03D17B69DB88002B01D0AA
S1131020082379E03F4B1B78DBB20133DBB23D4A46
S1131030191C1170012B04D13B4BEFF3108072B6D5
S113104018707B691B7801221343DAB27B691A702A
S11310507B69BA689A607B69BA1D1288DA807B69F9
S11310607A1D12785A702E4B2D4A9278D2B2D2B28F
S113107010210A43D2B2D2B29A70294B9B78DBB2C8
S11310801A1C2023134008D0254B254A9278D2B24B
S113109004210A43D2B29A7009E0214B204A927883
S11310A0D2B2D2B220210A43D2B2D2B29A707B69B0
S11310B01B781A1C202313400ED07B691B78062250
S11310C01343DAB27B691A70154B7A6912790121DC
S11310D00A43D2B21A7110E07B691B781A1C1023E0
S11310E013400AD07B691B7806229343DAB27B69EA
S11310F01A700B4B7A6952791A710A4B1B78DBB25E
S1131100013BDBB2074A191C1170002B03D1064BBB
S1131110187880F310880023181CBD4606B080BDE3
S113112000600640100000205400002080B500AF8D
S113113080235B030020191CFFF732FCBD4680BDF1
S113114080B500AF80235B030020191CFFF738FC37
S1131150BD4680BD80B500AFFFF7F2FFBD4680BD40
S113116080B582B000AF021CFB1D1A70FB1D1B78FA
S1131170002B02D0FFF7DAFF01E0FFF7E1FFBD46E5
S113118002B080BD80B500AF80239B030020191CF2
S1131190FFF706FCBD4680BD80B500AF80239B03EE
S11311A00020191CFFF70CFCBD4680BD80B500AFC4
S11311B0FFF7F2FFBD4680BD80B582B000AF021CD0
S11311C0FB1D1A70FB1D1B78002B02D0FFF7DAFF02
S11311D001E0FFF7E1FFBD4602B080BD80B500AF7E
S11311E08023DB030020191CFFF7DAFBBD4680BD1A
S11311F080B500AF8023DB030020191CFFF7E0FB60
S1131200BD4680BD80B500AFFFF7F2FFBD4680BD8F
S113121080B582B000AF021CFB1D1A70FB1D1B7849
S1131220002B02D0FFF7DAFF01E0FFF7E1FFBD4634
S113123002B080BD38B5051C00F0ECFB00F094FB57
S1131240084C2368002B02D0984700232360064CE7
S11312502368002B02D0984700232360281CFFF743
S113126033FA38BD3C0000204000002010B5041CB7
S113127000F0EEFA201C10BDF0B589B01F1C0EABB7
S11312801B780C1C04930FAB1E78013C00230190C7
S11312900391079202902370984217D1119A9A42AF
S11312A014D1049B002B01D06F2E32D0692E02D0B2
S11312B0642E00D0AAE0022F02D1039C023CA3E0DA
S11312C0012F00D0A2E0039C023C98E0692E0FD0CD
S11312D004D8582E19D0642E21D109E0752E04D0DB
S11312E0782E12D06F2E1AD115E0002700971BE03C
S11312F0019A002A13DA80231B069A4212D0524222
S113130001230192029200930EE00027009710251A
S11313100BE0119F00E000270097082505E000215D
S1131320009101E0012200920A250023069301E0C6
S113133006901C1C0298291CFFF7AEF80298059130
S1131340291CFFF765F805990290092902D80A1C9F
S1131350303205E0059A3732782E01D1059A57329A
S113136006980299631ED2B21A7001300029DFD1A7
S1131370082D09D10499002906D0302A04D00698F2
S1131380A31E30221A700230079A022A10D1009943
S1131390002901D1002F02D0109A013A109210991D
S11313A01191102D04D1049A002A01D0023911910F
S11313B0039A0024D11A119A8918164A914225DCFD
S11313C0302202E0013B1A70013011991C1C884242
S11313D0F8DB102D0AD1019A002A07D0049B002BB8
S11313E004D0631E1E70023C302323700099002930
S11313F002D0013C2D2308E0012F02D1013C2B2314
S113140003E0022F02D1013C20232370201C09B0E9
S1131410F0BDC046FD010000F0B5AD4C0027A54469
S11314201C1CAC4B0B916B4420210A90197009923F
S11314300897EBE10998252100F059FA0490002857
S113144010D1099800F062FA089F021C3F18002886
S113145000D1E4E10B9809990A9DA847002800D01F
S1131460DDE1DAE1049D09982D1A079507D02A1CBD
S11314700B9809990A9DA847002800D1CDE104984A
S113148045782B1C252D0AD1002602300123099012
S11314900696321C311CB446371C0593A6E0049A08
S11314A00021012501320F1C05952B2B00D1BDE134
S11314B004DC202B08D0232B11D109E02D2B00D1E3
S11314C0B2E1302B0BD105E0012F00D0B0E1B3E144
S11314D00121B1E1059D002D00D0ABE1ACE12A2B47
S11314E003D0002506950A2612E0251D24680694DB
S11314F0002C03DA6042002306900593501C5378B5
S11315002C1C0AE0069B73435D190695537801323F
S11315101D1C303D101C092DF4D96F4A069D9542BF
S113152006DD002601300990FF25321CB4465DE03B
S11315302E2B1CD143782A2B04D0421C0A200026CF
S113154084460CE026680434F343DB0F9C4683781E
S113155002300EE063465E435378761901321D1C57
S1131560303D101C092DF5D90125AC4601E00026BB
S1131570B446682B00D162E103226C2B00D15FE1F9
S11315800022DDB26E2B2FD00ADC632B1BD002DCD1
S1131590582B28D110E0642B0ED0692B23D10BE0FB
S11315A0732B13D004DC6F2B06D0702B1BD110E0EF
S11315B0752B01D0782B16D16346002B0ED0059BDA
S11315C0022B11D10CE06346002B0CD1002A0AD166
S11315D00AE0782508260322012105E0012603E01C
S11315E00123059300E0FF25013009900898079B2B
S11315F0C01808906E2D75D010D8632D00D184E0EA
S113160006D8252D00D186E0582D00D089E022E0AF
S1131610642D0FD0692D00D083E00BE0732D36D0FC
S113162003D86F2D00D07CE015E0752D13D0782DF4
S113163077D110E0231D07932068032A06D0022ADD
S113164001D100B202E0012A00D140B20091069912
S1131650019502910FE0231D07932068032A06D009
S1131660022A01D180B202E0012A00D1C0B2069A56
S11316700091019502928DA9059A3B1C0396FFF7F0
S1131680FBFD041E4DD0154F6F443F1B59E0231D35
S113169024680793002C00D1114C002907D0604620
S11316A02778013400284CD0B74249DC49E062462F
S11316B0201C002A07D0321C00F00CF9371C00282B
S11316C03FD0071B3DE000F021F9071C39E0C0467C
S11316D0C4FDFFFF36020000FD01000033020000DC
S11316E0501A0000251D07952368022A05D0032AF5
S11316F008D0002A00D088E004E068462021085A77
S1131700188082E0089D1D607FE02268201D0DABDB
S113171007901A7002E00DAB1D7007941C1C012782
S11317200FE0049800F0F2F8089F041E06D00B980E
S11317300499221C0A9DA84700286ED03F196EE028
S1131740371C05983E1C00283FD03023022800D0C7
S113175020233D4A6A44137022782D2A04D02B2A70
S113176002D00497202A0CD10497302B09D10B986E
S1131770211C01220A9B984700284ED0781E013470
S113178004900599022911D1412D01D0612D0DD16B
S1131790049D012D41DD0B98211C02220A9DA847BE
S11317A000283AD0049D0234023D04953E1C08E012
S11317B025490B98694401220A9DA84700282CD08A
S11317C00136069DAE42F3DB049F002F06D00B9832
S11317D0211C3A1C0A9DA84700281ED0059D002DF7
S11317E010D109E025700B98211C01220A9B98470F
S11317F0002812D0013602E0144C20256C440698CF
S11318008642EFDB089DAD190895079C099D2B784E
S1131810002B00D00EE6089F01E001277F42381C10
S11318208F239B009D44F0BD002504E0012703E0C5
S1131830022701E0022505955378013235E602229C
S1131840437801309DE6C0463602000037020000AE
S113185030B5C9B2031C1F2A35D94442032323409F
S1131860041C002B07D0D21A1D1C013D2170013429
S1131870002DFAD1C418002905D00D060804284308
S11318800B02014319435009231C00280ED0051CE8
S1131890013D196059609960D96019615961996174
S11318A0D9612033002DF3D14301E318D006400F52
S11318B007D0041C1D1C013C02C5002CFBD1800078
S11318C01B1803200240002A03D01970013A013387
S11318D0F9E730BD10B5C9B2821804E00478431C9E
S11318E08C4203D0181C9042F8D1002010BD00B5E2
S11318F0C9B202E08B4208D0101C0378421C002BB2
S1131900F8D14B4259414942084000BD00B5031C7F
S11319101A1C0133591E09780029F9D1101A00BD87
S113192038B50B4C0B4D01E008CC9847AC42FBD1C9
S1131930094C0A4D01E008CC9847AC42FBD1084C55
S1131940084D01E008CC9847AC42FBD138BDC046F5
S1131950541A0000541A0000541A0000541A0000CB
S1131960541A0000581A000038B5084C084D01E01C
S113197008CC9847AC42FBD1064C074D02E0043C2E
S113198023689847AC42FAD138BDC046541A0000C7
S1131990541A0000581A0000581A000030B5002AE2
S11319A020D088421ED003240123214207D12042A3
S11319B005D1944203D220C9043A20C010E0194250
S11319C009D1184207D1934205D20D88023A058005
S11319D00231023004E00D78013A05700131013022
S11319E0002AE2D130BD000010B5094C002C0ED005
S11319F004E06068A268FFF7D1FF0C342168002975
S1131A00F7D16368002BF4D1A368002BF1D110BD8A
S1131A10581A000010B5054B1C6803E0A068636801
S1131A2098472468002CF9D110BDC046500000200E
S1131A30054B181C002805D0854681B00020C04302
S1131A40009001B0F746704700300020F746704719
S1071A50000000008E
S1071A544107000042
S1131A58581A00000000002000000000581A000076
S1131A6800F0FF1F0000000000000000000000005C
S1071A780000000066
S90306F9FD
