S015000058505F4B4C32355F4C45445F50452E6865784A
S113000000300020ED050000CD200000D9200000C4
S1130010D9200000D9200000D9200000D9200000F8
S1130020D9200000D9200000D9200000D9200000E8
S1130030D9200000D9200000D9200000D9200000D8
S1130040D9200000D9200000D9200000D9200000C8
S1130050D9200000D9200000D9200000D9200000B8
S1130060D9200000D9200000D9200000D9200000A8
S113007079150000751A0000691F0000D9200000DE
S1130080D9200000D9200000D9200000D920000088
S1130090D9200000D9200000D9200000D920000078
S11300A0D9200000D9200000D9200000D920000068
S11300B0D9200000D9200000D9200000D920000058
S1130400FFFFFFFFFFFFFFFFFFFFFFFF7EFFFFFF79
S1130410002934D00123002210B488422CD30124B3
S11304202407A14204D2814202D209011B01F8E748
S1130430E400A14204D2814202D249005B00F8E701
S1130440884201D3401A1A434C08A04202D3001B2D
S11304505C0822438C08A04202D3001B9C08224360
S1130460CC08A04202D3001BDC082243002803D09E
S11304701B0901D00909E3E7101C10BC70470028D0
S113048001D00020C04307B4024802A140180290E2
S113049003BDC046190000000029F0D003B5FFF7E2
S11304A0B9FF0EBC4243891A1847C0467047C0467C
S11304B080B500AFBD4680BD80B500AFBD4680BDF0
S11304C080B500AFBD4680BD80B500AFBD4680BDE0
S11304D080B500AFBD4680BD80B500AFBD4680BDD0
S11304E080B500AFBD4680BD80B500AFBD4680BDC0
S11304F080B500AFBD4680BD80B500AFBD4680BDB0
S113050080B500AFBD4680BD80B500AFBD4680BD9F
S113051080B500AFBD4680BD80B500AFBD4680BD8F
S113052080B500AFBD4680BD80B500AFBD4680BD7F
S113053080B500AF01F096FE01F08AFF552000F06F
S11305407DF8312000F07AF8FA235B00181C02F0E1
S11305500BF801F097FF552000F05AFA322000F012
S113056057FAFA235B00181C01F0FEFF01F0A4FF08
S1130570552000F037FC332000F034FCFA235B00F4
S1130580181C01F0F1FF01F0B1FF0D2000F056F846
S11305900A2000F053F80D2000F03AFA0A2000F087
S11305A037FA0D2000F01EFC0A2000F01BFCFA2391
S11305B05B00181C01F0D8FFBEE7C04680B582B0CE
S11305C000AF7860FEE7C04680B500AF054A064B31
S11305D0D31A054A101C00211A1C01F0F9FFBD466C
S11305E080BDC0464C0100200000002002F0D2FB78
S11305F001F078FDFFF7E8FF02F0A8FB02F042FBF0
S113060002F0D6FB044B0020191CFFF791FF031CDA
S1130610181C01F0C1FFC0460000002080B500AFE7
S1130620044B1A68044B101C191C012200F096FE9E
S1130630BD4680BD3C0100201C00002080B582B076
S113064000AF021CFB1D1A702C4B1B88102B01D110
S11306500B234EE02A4B1B78DBB20133DBB2284A72
S1130660191C1170012B04D1264BEFF3108072B6C4
S11306701870224B1B8801339AB2204B1A80224BEC
S11306801B881A1C2149F81D0078885401339AB23A
S11306901D4B1A801C4B1B880F2B02D91A4B0022AE
S11306A01A801B4B1B881A1C2023134012D1184B91
S11306B01B88202213439AB2154B1A80154B1A68D3
S11306C0154B1B88191C114BCB18101C191C01222B
S11306D000F08AFE0A4B1B78DBB2013BDBB2084A0E
S11306E0191C1170002B03D1064B187880F3108865
S11306F00023181CBD4602B080BDC0461E00002069
S11307000C010020480100202200002024000020C9
S1130710040000203C0100202000002080B500AF30
S11307200F4B00221A800F4B00221A800E4B00221E
S11307301A800E4B00221A800D4B00221A800D4B9A
S113074000221A800C4B00221A80002000F024FDA5
S1130750021C0A4B1A60FFF761FFBD4680BDC0460C
S11307600400002006000020080000200A000020E9
S11307701E00002020000020220000203C01002058
S113078090B583B000AF78600024284B1B880F2BF2
S113079022D8264B1B8801339AB2244B1A80244B4F
S11307A01B881A1C234908782349885401339AB2B8
S11307B01F4B1A801E4B1B880F2B02D91C4B002287
S11307C01A8004232343DCB2184B1B88102B0DD151
S11307D002232343DCB209E0184B1B884022134355
S11307E09AB2164B1A8001232343DCB2221C012344
S11307F01340DBB2002B02D0FFF75EFE0BE0221C9D
S11308000423134001D0FFF75BFE221C0223134094
S113081001D0FFF75DFE0A4B1A68064B101C191C29
S1130820012200F09BFDBD4603B090BD06000020F0
S11308300A0000201C0000200C00002004000020FE
S11308403C01002080B584B000AF78603B1C0E33BF
S113085000221A80304B1B881A1C2023134007D017
S11308603B1C0E333A1C0E32128802210A431A80B2
S11308702A4B1B8801339AB2284B1A80274B1B88BA
S11308800F2B02D9254B00221A80254B1B88013BD4
S11308909AB2234B1A80224B1B88002B13D01E4B79
S11308A01B88202213439AB21B4B1A801D4B1A68D3
S11308B01A4B1B88191C1C4BCB18101C191C012229
S11308C000F092FD12E0144B1A88DF2313409AB211
S11308D0114B1A80154B1B78002B07D13B1C0E3390
S11308E03A1C0E32128801210A431A803B1C0E3333
S11308F01A880223134001D0FFF7E6FD3B1C0E3398
S11309001A8801231340DBB2002B01D0FFF7E4FD6A
S1130910BD4604B080BDC046040000202000002075
S11309201E0000203C010020240000203400002090
S113093080B584B000AF7860234B1A683B1C0C333D
S1130940101C191C00F09AFEFB68002B36D0FA68C4
S11309500223134001D0042300E000231B4A128821
S113096013439AB2194B1A80FA680823134001D032
S1130970802300E00023154A128813439AB2134BD4
S11309801A80FB681A1C01231340DBB2002B01D030
S1130990012300E000230D4A128813439AB20B4B43
S11309A01A80FA680423134001D0022300E00023D4
S11309B0064A128813439AB2044B1A80FFF77CFD4F
S11309C0BD4604B080BDC0463C01002004000020A8
S11309D080B582B000AF7860044B1B8802221343B9
S11309E09AB2024B1A80BD4602B080BD04000020BA
S11309F080B500AF044B1A68044B101C191C01226B
S1130A0000F02AFFBD4680BD4001002050000020B8
S1130A1080B582B000AF021CFB1D1A702C4B1B88E2
S1130A20102B01D10B234EE02A4B1B78DBB2013390
S1130A30DBB2284A191C1170012B04D1264BEFF3A9
S1130A40108072B61870224B1B8801339AB2204B67
S1130A501A80224B1B881A1C2149F81D00788854DF
S1130A6001339AB21D4B1A801C4B1B880F2B02D9E1
S1130A701A4B00221A801B4B1B881A1C202313407C
S1130A8012D1184B1B88202213439AB2154B1A809B
S1130A90154B1A68154B1B88191C114BCB18101CCD
S1130AA0191C012200F01EFF0A4B1B78DBB2013B2C
S1130AB0DBB2084A191C1170002B03D1064B1878BD
S1130AC080F310880023181CBD4602B080BDC046C8
S1130AD0520000200C010020480100205600002094
S1130AE0580000203600002040010020540000205F
S1130AF080B500AF0F4B00221A800F4B00221A80E2
S1130B000E4B00221A800E4B00221A800D4B00223D
S1130B101A800D4B00221A800C4B00221A800020F0
S1130B2000F0E0FD021C0A4B1A60FFF761FFBD46AE
S1130B3080BDC04636000020380000203A00002066
S1130B403C000020520000205400002056000020E9
S1130B504001002090B583B000AF78600024284B9A
S1130B601B880F2B22D8264B1B8801339AB2244BA7
S1130B701A80244B1B881A1C23490878234988545B
S1130B8001339AB21F4B1A801E4B1B880F2B02D9BC
S1130B901C4B00221A8004232343DCB2184B1B880D
S1130BA0102B0DD102232343DCB209E0184B1B8820
S1130BB0402213439AB2164B1A8001232343DCB21A
S1130BC0221C01231340DBB2002B02D0FFF794FC5C
S1130BD00BE0221C0423134001D0FFF791FC221CDC
S1130BE00223134001D0FFF793FC0A4B1A68064B0B
S1130BF0101C191C012200F02FFEBD4603B090BD4D
S1130C00380000203C00002050000020400000205C
S1130C10360000204001002080B584B000AF786029
S1130C203B1C0E3300221A80304B1B881A1C2023D5
S1130C30134007D03B1C0E333A1C0E32128802219B
S1130C400A431A802A4B1B8801339AB2284B1A8014
S1130C50274B1B880F2B02D9254B00221A80254BCA
S1130C601B88013B9AB2234B1A80224B1B88002B12
S1130C7013D01E4B1B88202213439AB21B4B1A809D
S1130C801D4B1A681A4B1B88191C1C4BCB18101CC3
S1130C90191C012200F026FE12E0144B1A88DF23EF
S1130CA013409AB2114B1A80154B1B78002B07D1B5
S1130CB03B1C0E333A1C0E32128801210A431A805F
S1130CC03B1C0E331A880223134001D0FFF71CFC8F
S1130CD03B1C0E331A8801231340DBB2002B01D0D6
S1130CE0FFF71AFCBD4604B080BDC04636000020A4
S1130CF05400002052000020400100205800002031
S1130D006800002080B584B000AF7860234B1A6877
S1130D103B1C0C33101C191C00F02AFFFB68002B31
S1130D2036D0FA680223134001D0042300E00023E4
S1130D301B4A128813439AB2194B1A80FA68082383
S1130D40134001D0802300E00023154A1288134386
S1130D509AB2134B1A80FB681A1C01231340DBB2AE
S1130D60002B01D0012300E000230D4A1288134315
S1130D709AB20B4B1A80FA680423134001D0022361
S1130D8000E00023064A128813439AB2044B1A80E7
S1130D90FFF7B2FBBD4604B080BDC0464001002051
S1130DA03600002080B582B000AF7860044B1B8809
S1130DB0022213439AB2024B1A80BD4602B080BD90
S1130DC03600002080B500AF044B1A68044B101C99
S1130DD0191C012200F0BAFFBD4680BD4401002069
S1130DE08400002080B582B000AF021CFB1D1A7085
S1130DF02C4B1B88102B01D10B234EE02A4B1B7864
S1130E00DBB20133DBB2284A191C1170012B04D167
S1130E10264BEFF3108072B61870224B1B880133F7
S1130E209AB2204B1A80224B1B881A1C2149F81DA8
S1130E300078885401339AB21D4B1A801C4B1B88CE
S1130E400F2B02D91A4B00221A801B4B1B881A1C29
S1130E502023134012D1184B1B88202213439AB22B
S1130E60154B1A80154B1A68154B1B88191C114B0E
S1130E70CB18101C191C012200F0AEFF0A4B1B7882
S1130E80DBB2013BDBB2084A191C1170002B03D101
S1130E90064B187880F310880023181CBD4602B056
S1130EA080BDC046860000200C01002048010020BF
S1130EB08A0000208C0000206A00002044010020E9
S1130EC08800002080B500AF0F4B00221A800F4B22
S1130ED000221A800E4B00221A800E4B00221A8028
S1130EE00D4B00221A800D4B00221A800C4B00225D
S1130EF01A80002000F070FE021C0A4B1A60FFF7F3
S1130F0061FFBD4680BDC0466A0000206C00002021
S1130F106E00002070000020860000208800002061
S1130F208A0000204401002090B583B000AF7860AF
S1130F300024284B1B880F2B22D8264B1B880133F7
S1130F409AB2244B1A80244B1B881A1C2349087814
S1130F502349885401339AB21F4B1A801E4B1B88B5
S1130F600F2B02D91C4B00221A8004232343DCB22A
S1130F70184B1B88102B0DD102232343DCB209E04C
S1130F80184B1B88402213439AB2164B1A80012334
S1130F902343DCB2221C01231340DBB2002B02D01A
S1130FA0FFF79EFA0BE0221C0423134001D0FFF745
S1130FB09BFA221C0223134001D0FFF7B1FA0A4B1B
S1130FC01A68064B101C191C012200F0BFFEBD4616
S1130FD003B090BD6C00002070000020840000204D
S1130FE0740000206A0000204401002080B584B011
S1130FF000AF78603B1C0E3300221A80304B1B88F4
S11310001A1C2023134007D03B1C0E333A1C0E320B
S1131010128802210A431A802A4B1B8801339AB290
S1131020284B1A80274B1B880F2B02D9254B0022F3
S11310301A80254B1B88013B9AB2234B1A80224B02
S11310401B88002B13D01E4B1B88202213439AB2FB
S11310501B4B1A801D4B1A681A4B1B88191C1C4BFE
S1131060CB18101C191C012200F0B6FE12E0144B20
S11310701A88DF2313409AB2114B1A80154B1B7840
S1131080002B07D13B1C0E333A1C0E32128801216F
S11310900A431A803B1C0E331A880223134001D0E2
S11310A0FFF726FA3B1C0E331A8801231340DBB2E8
S11310B0002B01D0FFF738FABD4604B080BDC0460E
S11310C06A000020880000208600002044010020DF
S11310D08C0000209C00002080B584B000AF7860B4
S11310E0234B1A683B1C0C33101C191C00F0BAFF6C
S11310F0FB68002B36D0FA680223134001D0042386
S113110000E000231B4A128813439AB2194B1A8039
S1131110FA680823134001D0802300E00023154A15
S1131120128813439AB2134B1A80FB681A1C0123CA
S11311301340DBB2002B01D0012300E000230D4A51
S1131140128813439AB20B4B1A80FA680423134093
S113115001D0022300E00023064A128813439AB206
S1131160044B1A80FFF7BCF9BD4604B080BDC046ED
S1131170440100206A00002080B582B000AF78608E
S1131180044B1B88022213439AB2024B1A80BD46B9
S113119002B080BD6A00002080B584B000AF7860E2
S11311A0634BFB60FB6800221A81FB6800221A82F1
S11311B0FB680022DA60FB6800225A82FB68002286
S11311C01A83FB6800225A61FB687A68DA61594B1A
S11311D0FA681A60584A5849584BCB588021C900BC
S11311E01943564BD150564B554A5268111C554A17
S11311F00A40802189000A435A60514B504A926840
S1131200111C504A0A40802189000A439A604E4AC0
S11312104D49C3239B00CB58FF218B4380211943A5
S1131220C3239B00D150484B474A1268802149018F
S11312300A431A60454B454AD278D2B208218A4300
S1131240D2B2DA70414B414AD278D2B204218A43F5
S1131250D2B2DA70FB6800221A80FB6800225A605E
S11312603A4B00229A70394B00229A71374B002274
S11312705A71314A3049364BCB58191C354B0B4007
S11312808021C9041943324BD150304B2F4A127874
S1131290D2B2D2B21F218A43D2B204210A43D2B2BB
S11312A0D2B21A70294BE2225A70284B274A927AFA
S11312B0D2B2D2B21F218A43D2B203210A43D2B29C
S11312C0D2B29A72214B214AD27AD2B2D2B202213C
S11312D00A43D2B2D2B2DA721C4B1C4AD278D2B2CE
S11312E0D2B208210A43D2B2D2B2DA70174B174AEB
S11312F0D278D2B2D2B204210A43D2B2D2B2DA70D4
S1131300124B124AD278D2B220210A43D2B2DA70F6
S11313100E4B0E4A9279D2B20F210A43D2B29A717D
S11313200D4BFA685A60FB68181CBD4604B080BDBA
S1131330A0000020C0000020007004403410000011
S113134000900440FFF8FFFE00E100E000A006402A
S113135004100000FFFFFFF31401002080B586B0E5
S113136000AFF860B960BB1D1A80FB687B61BB1DD0
S11313701B88002B01D184232DE07B691B8A002B61
S113138001D0082327E0164B1B78DBB20133DBB214
S1131390134A191C1170012B04D1124BEFF3108066
S11313A072B618707B69BA68DA607B69BA1D1288F4
S11313B01A827B6900221A81094B1B78DBB2013B3C
S11313C0DBB2074A191C1170002B03D1054B1878A6
S11313D080F310880023181CBD4606B080BDC046AB
S11313E00C0100204801002080B586B000AFF860F1
S11313F0B960BB1D1A80FB687B61BB1D1B88002B79
S113140001D1842342E07B691B8B002B01D008238C
S11314103CE0204B1B78DBB20133DBB21D4A191CC4
S11314201170012B04D11C4BEFF3108072B61870AD
S11314307B69BA685A617B69BA1D12881A837B6911
S113144000225A827B691B88012213439AB27B696A
S11314501A80124B114AD278D2B2802149420A43EF
S1131460D2B2DA700D4B0D4A9279D2B29A71094B0D
S11314701B78DBB2013BDBB2064A191C1170002B4E
S113148003D1054B187880F310880023181CBD463F
S113149006B080BD0C0100204801002000A00640D9
S11314A090B583B000AF7860124BDB79DBB21C1CC3
S11314B07B681B8A002B1AD07B68DB68E2B21A7047
S11314C05A1C7B68DA607B681B8901339AB27B689B
S11314D01A817B681A897B681B8A9A4207D17B68C8
S11314E000221A827B68DB69181CFFF749F9BD46A4
S11314F003B090BD00A0064080B582B000AF786014
S11315007B685A8A7B681B8B9A421CD2194A7B6877
S11315105B691978D1715A1C7B685A617B685B8A54
S113152001339AB27B685A827B685A8A7B681B8B28
S11315309A421CD17B6800221A837B68DB69181CE1
S1131540FFF780F913E00B4B0A4AD278D1B27F221D
S11315500A40D2B2DA70074B064A9279D2B29A7133
S11315607B681B88012293439AB27B681A80BD462C
S113157002B080BD00A00640F0B5474680B482B0FA
S113158000AF3C4B1B687B603B4B1B79DBB21C1CE4
S113159000250026221C0F2313404DD0364B0F226A
S11315A01A71354BDB79DBB29846221C02231340B7
S11315B013D0221C202313400CD04246002A09D108
S11315C0731CDEB27B681B88022213439AB27B68C9
S11315D01A8002E004232B439DB2221C08231340EB
S11315E002D001232B439DB2221C01231340DBB202
S11315F0002B02D002232B439DB2221C0423134050
S113160002D008232B439DB27B685A682B1C1A43D3
S11316107B685A602023221C9A43131C9CB2002E20
S113162005D07B68DB69181CFFF7D2F904E07B68FE
S1131630DB69181CFFF77CF9221C2023134003D01C
S11316407B68181CFFF72CFF7B681B881A1C01237E
S11316501340DBB2002B07D0221C8023134003D09D
S11316607B68181CFFF748FFBD4602B004BC9046D7
S1131670F0BDC046C000002000A0064080B584B084
S113168000AF786039607B68FB60144B1B78DBB279
S11316900133DBB2114A191C1170012B04D1104B18
S11316A0EFF3108072B61870FB685A683B681A60D2
S11316B0FB6800225A60094B1B78DBB2013BDBB2AA
S11316C0064A191C1170002B03D1054B187880F3BE
S11316D010880023181CBD4604B080BD0C010020F6
S11316E04801002080B584B000AF7860504BFB60A7
S11316F0FB6800221A81FB6800221A82FB68002220
S1131700DA60FB6800225A82FB6800221A83FB68B5
S113171000225A61FB687A68DA61464BFA681A60FB
S1131720454A4549454BCB58802109011943434B50
S1131730D150434B424A5268111C424A0A40C021CC
S113174089000A435A603E4B3D4A1268111C3D4AC7
S11317500A40C02189000A431A603B4A3A49C3231C
S11317609B00CB58191C394B0B40802109021943AB
S1131770C3239B00D150344B334A12688021890122
S11317800A431A60324B324AD278D2B208218A43D1
S1131790D2B2DA702E4B2E4AD278D2B204218A43C6
S11317A0D2B2DA70FB6800221A80FB6800225A6009
S11317B0274B00229A70264B00229A71244B002258
S11317C05A71234B224A1278D2B21F218A43D2B2D1
S11317D01A701F4B9C225A701D4B1D4AD278D2B2EC
S11317E0D2B208210A43D2B2D2B2DA70184B184AE4
S11317F0D278D2B2D2B204210A43D2B2D2B2DA70CF
S1131800134B134AD278D2B220210A43D2B2DA70EF
S11318100F4B0F4A9279D2B20F210A43D2B29A7176
S11318200C4BFA689A60FB68181CBD4604B080BD76
S1131830C4000020E40000200070044034100000C4
S113184000D00440FFF8FFFE00E100E0FF00FFFFCE
S113185000B006401401002080B586B000AFF860E7
S1131860B960BB1D1A80FB687B61BB1D1B88002B04
S113187001D184232DE07B691B8A002B01D008232E
S113188027E0164B1B78DBB20133DBB2134A191C79
S11318901170012B04D1124BEFF3108072B6187043
S11318A07B69BA68DA607B69BA1D12881A827B691F
S11318B000221A81094B1B78DBB2013BDBB2074AD9
S11318C0191C1170002B03D1054B187880F3108874
S11318D00023181CBD4606B080BDC0460C01002084
S11318E04801002080B586B000AFF860B960BB1D28
S11318F01A80FB687B61BB1D1B88002B01D18423EC
S113190042E07B691B8B002B01D008233CE0204B79
S11319101B78DBB20133DBB21D4A191C1170012B99
S113192004D11C4BEFF3108072B618707B69BA684F
S11319305A617B69BA1D12881A837B6900225A8214
S11319407B691B88012213439AB27B691A80124B6C
S1131950114AD278D2B2802149420A43D2B2DA7013
S11319600D4B0D4A9279D2B29A71094B1B78DBB2B6
S1131970013BDBB2064A191C1170002B03D1054B45
S1131980187880F310880023181CBD4606B080BD6B
S11319900C0100204801002000B0064090B583B03F
S11319A000AF7860124BDB79DBB21C1C7B681B8AAE
S11319B0002B1AD07B68DB68E2B21A705A1C7B6871
S11319C0DA607B681B8901339AB27B681A817B6871
S11319D01A897B681B8A9A4207D17B6800221A8283
S11319E07B68DB69181CFFF7B5F8BD4603B090BDF2
S11319F000B0064080B582B000AF78607B685A8A38
S1131A007B681B8B9A421CD2194A7B685B691978E4
S1131A10D1715A1C7B685A617B685B8A01339AB224
S1131A207B685A827B685A8A7B681B8B9A421CD1DA
S1131A307B6800221A837B68DB69181CFFF7ECF8CB
S1131A4013E00B4B0A4AD278D1B27F220A40D2B2B9
S1131A50DA70074B064A9279D2B29A717B681B8876
S1131A60012293439AB27B681A80BD4602B080BDBE
S1131A7000B00640F0B5474680B482B000AF3A4BA0
S1131A801B687B60394B1B79DBB21C1C00250026CC
S1131A90221C0F2313404AD0344BDB79DBB2984627
S1131AA0221C0223134013D0221C202313400CD0E9
S1131AB04246002A09D1731CDEB27B681B880222CD
S1131AC013439AB27B681A8002E004232B439DB22D
S1131AD0221C0823134002D001232B439DB2221C55
S1131AE001231340DBB2002B02D002232B439DB20F
S1131AF0221C0423134002D008232B439DB27B688D
S1131B005A682B1C1A437B685A602023221C9A4370
S1131B10131C9CB2002E05D07B68DB69181CFFF7F0
S1131B2041F904E07B68DB69181CFFF7EBF8221C21
S1131B302023134003D07B68181CFFF72FFF7B681A
S1131B401B881A1C01231340DBB2002B07D0221C74
S1131B508023134003D07B68181CFFF74BFFBD465E
S1131B6002B004BC9046F0BDE400002000B0064082
S1131B7080B584B000AF786039607B68FB60144B3B
S1131B801B78DBB20133DBB2114A191C1170012B33
S1131B9004D1104BEFF3108072B61870FB685A68CA
S1131BA03B681A60FB6800225A60094B1B78DBB261
S1131BB0013BDBB2064A191C1170002B03D1054B03
S1131BC0187880F310880023181CBD4604B080BD2B
S1131BD00C0100204801002080B584B000AF78607B
S1131BE0504BFB60FB6800221A81FB6800221A82BA
S1131BF0FB680022DA60FB6800225A82FB6800223C
S1131C001A83FB6800225A61FB687A68DA61464BE2
S1131C10FA681A60454A4549454BCB588021490129
S1131C201943434BD150434B424A9268111C424AD8
S1131C300A40C02189000A439A603E4B3D4AD2685B
S1131C40111C3D4A0A40C02189000A43DA603B4A1C
S1131C503A49C3239B00CB58191C394B0B408021B4
S1131C6009041943C3239B00D150344B334A1268EF
S1131C708021C9010A431A60324B324AD278D2B267
S1131C8008218A43D2B2DA702E4B2E4AD278D2B2CD
S1131C9004218A43D2B2DA70FB6800221A80FB68FE
S1131CA000225A60274B00229A70264B00229A7118
S1131CB0244B00225A71234B224A1278D2B21F219C
S1131CC08A43D2B21A701F4B9C225A701D4B1D4A74
S1131CD0D278D2B2D2B208210A43D2B2D2B2DA70E6
S1131CE0184B184AD278D2B2D2B204210A43D2B2E3
S1131CF0D2B2DA70134B134AD278D2B220210A43FB
S1131D00D2B2DA700F4B0F4A9279D2B20F210A4342
S1131D10D2B29A710C4BFA68DA60FB68181CBD46A3
S1131D2004B080BDE80000200801002000700440D9
S1131D303410000000C00440FFF8FFFE00E100E0A2
S1131D40FFFF00FF00C006401401002080B586B0EC
S1131D5000AFF860B960BB1D1A80FB687B61BB1DD6
S1131D601B88002B01D184232DE07B691B8A002B67
S1131D7001D0082327E0164B1B78DBB20133DBB21A
S1131D80134A191C1170012B04D1124BEFF310806C
S1131D9072B618707B69BA68DA607B69BA1D1288FA
S1131DA01A827B6900221A81094B1B78DBB2013B42
S1131DB0DBB2074A191C1170002B03D1054B1878AC
S1131DC080F310880023181CBD4606B080BDC046B1
S1131DD00C0100204801002080B586B000AFF860F7
S1131DE0B960BB1D1A80FB687B61BB1D1B88002B7F
S1131DF001D1842342E07B691B8B002B01D0082393
S1131E003CE0204B1B78DBB20133DBB21D4A191CCA
S1131E101170012B04D11C4BEFF3108072B61870B3
S1131E207B69BA685A617B69BA1D12881A837B6917
S1131E3000225A827B691B88012213439AB27B6970
S1131E401A80124B114AD278D2B2802149420A43F5
S1131E50D2B2DA700D4B0D4A9279D2B29A71094B13
S1131E601B78DBB2013BDBB2064A191C1170002B54
S1131E7003D1054B187880F310880023181CBD4645
S1131E8006B080BD0C0100204801002000C00640BF
S1131E9090B583B000AF7860124BDB79DBB21C1CC9
S1131EA07B681B8A002B1AD07B68DB68E2B21A704D
S1131EB05A1C7B68DA607B681B8901339AB27B68A1
S1131EC01A817B681A897B681B8A9A4207D17B68CE
S1131ED000221A827B68DB69181CFFF725F8BD46CF
S1131EE003B090BD00C0064080B582B000AF7860FA
S1131EF07B685A8A7B681B8B9A421CD2194A7B687E
S1131F005B691978D1715A1C7B685A617B685B8A5A
S1131F1001339AB27B685A827B685A8A7B681B8B2E
S1131F209A421CD17B6800221A837B68DB69181CE7
S1131F30FFF75CF813E00B4B0A4AD278D1B27F2248
S1131F400A40D2B2DA70074B064A9279D2B29A7139
S1131F507B681B88012293439AB27B681A80BD4632
S1131F6002B080BD00C00640F0B5474680B482B0E0
S1131F7000AF3A4B1B687B60394B1B79DBB21C1CEE
S1131F8000250026221C0F2313404AD0344BDB7952
S1131F90DBB29846221C0223134013D0221C2023B8
S1131FA013400CD04246002A09D1731CDEB27B6870
S1131FB01B88022213439AB27B681A8002E004232E
S1131FC02B439DB2221C0823134002D001232B4330
S1131FD09DB2221C01231340DBB2002B02D002234A
S1131FE02B439DB2221C0423134002D008232B430D
S1131FF09DB27B685A682B1C1A437B685A60202365
S1132000221C9A43131C9CB2002E05D07B68DB690A
S1132010181CFFF7B1F804E07B68DB69181CFFF7B4
S11320205BF8221C2023134003D07B68181CFFF7A5
S11320302FFF7B681B881A1C01231340DBB2002B83
S113204007D0221C8023134003D07B68181CFFF7A1
S11320504BFFBD4602B004BC9046F0BD0801002011
S113206000C0064080B584B000AF786039607B68FA
S1132070FB60144B1B78DBB20133DBB2114A191C31
S11320801170012B04D1104BEFF3108072B618704D
S1132090FB685A683B681A60FB6800225A60094B67
S11320A01B78DBB2013BDBB2064A191C1170002B12
S11320B003D1054B187880F310880023181CBD4603
S11320C004B080BD0C0100204801002080B500AFA1
S11320D0FEF7EEF9BD4680BD80B500AFFFBEBD463C
S11320E080BDC04680B500AF504A5149514BD150D4
S11320F0514A88235B010021D1504F4A4E494F4B2E
S1132100CB58C821890119434C4BD1504A4A4C4BF6
S11321104C49D150484A48494B4BCB58802149023D
S11321201943494BD150444B434A1268111C474A46
S11321300A401A60404A4049434BCB58191C444B4F
S11321400B408021490419433F4BD150414B414A34
S1132150926C111C404A0A409A643E4B3D4AD26C30
S1132160111C3D4A0A40DA643C4B80221A703C4BF5
S113217024225A703A4B9A221A70394B384AD27830
S1132180D1B21F220A40D2B2DA70354B01221A7141
S1132190334B00225A71C046314B9B79DBB21A1C77
S11321A010231340F8D1C0462D4B9B79DBB21A1C87
S11321B00C231340082BF7D1284B80221A70284B8C
S11321C09A221A70264B24225A70254B01221A7126
S11321D0234B40225A71C046214B9B79DBB21A1C17
S11321E00C231340082BF7D1C0461D4B9B79DBB25F
S11321F01A1C40231340F8D0184B80221A70184B35
S11322001A221A70164B24225A70154B01221A7185
S1132210134B40225A71C046114B9B79DBB21A1CF6
S11322200C2313400C2BF7D1BD4680BD00E000E029
S113223000000000080D0000007004403810000089
S1132240441000000000011004100000FFFFF3FF21
S1132250FFFFFFFC00900440FFF8FFFE0050064023
S11322600040064080B500AF334B334A1269111C5D
S1132270324A0A40E021C9000A431A61304B304A0D
S11322805279D2B21F218A43D2B25A712C4B2C4AB2
S11322901279D2B207218A43D2B21A71294B294A40
S11322A01278D2B2D2B273218A43D2B250210A43F5
S11322B0D2B2D2B21A70234B224A5278D2B2D2B2DC
S11322C063218A43D2B240210A43D2B2D2B25A70B5
S11322D01C4B1C4A9278D2B219218A43D2B29A700A
S11322E0194B00221A70144B134A126D111C134A15
S11322F00A40E021C9000A431A65144A1349C1235C
S11323009B00CB58191C124B1940C1239B00D15080
S1132310002000F01FF800F0A5F800F0BDF800F070
S1132320D5F800F0EDF8FEF7F9F9FEF7E1FBFEF75A
S1132330C9FD62B6BD4680BD00900440FFF8FFFEB3
S113234000F0074000D0074000E0074000E100E053
S1132350FFFF00FF80B584B000AF7860214BFB60C5
S1132360FB687A681A60204B1F4A1268111C1F4AC6
S11323700A401A601C4B1C4A5269F02109040A43A2
S11323805A611B4B1A4A126D111C1A4A0A408021C9
S113239049000A431A65164B154A526D111C154A19
S11323A00A40802149000A435A65114B104A926D34
S11323B0111C104A0A40802149000A439A650C4BBB
S11323C00B4AD26D111C0B4A0A40802149000A4372
S11323D0DA65094BFA681A60FB68181CBD4604B03C
S11323E080BDC0461001002000F10F40FFFF0FFF29
S11323F000D00440FFF8FFFE1401002080B582B035
S113240000AF78603960044B3968F02212040A4046
S11324105A60BD4602B080BD00F10FF880B582B0AD
S113242000AF78603960044B3968F02212040A4026
S1132430DA60BD4602B080BD00F10FF880B500AF90
S113244080235B030020191CFFF7D8FFBD4680BD25
S113245080B500AF80235B030020191CFFF7DEFF6B
S1132460BD4680BD80B500AFFFF7E8FFBD4680BD27
S113247080B500AF80239B030020191CFFF7BEFF2B
S1132480BD4680BD80B500AF80239B030020191C8E
S1132490FFF7C4FFBD4680BD80B500AFFFF7E8FF7E
S11324A0BD4680BD80B500AF8023DB030020191C2E
S11324B0FFF7A4FFBD4680BD80B500AF8023DB03DA
S11324C00020191CFFF7AAFFBD4680BD80B500AFF0
S11324D0FFF7E8FFBD4680BD80B500AF80231B0435
S11324E00020191CFFF78AFFBD4680BD80B500AFF0
S11324F080231B040020191CFFF790FFBD4680BDFC
S113250080B500AFFFF7E8FFBD4680BD80B582B05F
S113251000AFFB1D00221A7007E0C046FB1D1B78AC
S1132520DBB20133DAB2FB1D1A70FB1D1B78DBB280
S1132530632BF2D9BD4602B080BDC04680B582B0DF
S113254000AF021CBB1D1A8006E0FFF7DFFFBB1DB6
S1132550BA1D1288643A1A80BB1D1B88642BF4D8F8
S1132560BD4602B080BDC04680B582B000AF021C3B
S1132570BB1D1A8009E0FA239B00181CFFF7DEFF3D
S1132580BB1DBA1D1288013A1A80BB1D1B88002B83
S1132590F1D1BD4602B080BD38B5051C00F0ECFB9E
S11325A000F094FB084C2368002B02D098470023CA
S11325B02360064C2368002B02D098470023236035
S11325C0281CFDF7FBFF38BD240100202801002052
S11325D010B5041C00F0EEFA201C10BDF0B589B053
S11325E01F1C0EAB1B780C1C04930FAB1E78013C14
S11325F0002301900391079202902370984217D10F
S1132600119A9A4214D1049B002B01D06F2E32D020
S1132610692E02D0642E00D0AAE0022F02D1039CBE
S1132620023CA3E0012F00D0A2E0039C023C98E00E
S1132630692E0FD004D8582E19D0642E21D109E068
S1132640752E04D0782E12D06F2E1AD115E00027E3
S113265000971BE0019A002A13DA80231B069A4292
S113266012D0524201230192029200930EE00027FD
S1132670009710250BE0119F00E000270097082524
S113268005E00021009101E0012200920A250023C7
S1132690069301E006901C1C0298291CFDF7FCFE21
S11326A002980591291CFDF7B3FE059902900929AA
S11326B002D80A1C303205E0059A3732782E01D14F
S11326C0059A573206980299631ED2B21A700130E5
S11326D00029DFD1082D09D10499002906D0302A18
S11326E004D00698A31E30221A700230079A022AD8
S11326F010D10099002901D1002F02D0109A013A7B
S1132700109210991191102D04D1049A002A01D02D
S113271002391191039A0024D11A119A8918164A80
S1132720914225DC302202E0013B1A7001301199FC
S11327301C1C8842F8DB102D0AD1019A002A07D00C
S1132740049B002B04D0631E1E70023C30232370B4
S11327500099002902D0013C2D2308E0012F02D169
S1132760013C2B2303E0022F02D1013C20232370E0
S1132770201C09B0F0BDC046FD010000F0B5AD4C11
S11327800027A5441C1CAC4B0B916B4420210A90E0
S1132790197009920897EBE10998252100F059FA7C
S11327A00490002810D1099800F062FA089F021CD6
S11327B03F18002800D1E4E10B9809990A9DA84725
S11327C0002800D0DDE1DAE1049D09982D1A07956F
S11327D007D02A1C0B9809990A9DA847002800D104
S11327E0CDE1049845782B1C252D0AD10026023012
S11327F0012309900696321C311CB446371C0593FC
S1132800A6E0049A0021012501320F1C05952B2B0B
S113281000D1BDE104DC202B08D0232B11D109E029
S11328202D2B00D1B2E1302B0BD105E0012F00D0CC
S1132830B0E1B3E10121B1E1059D002D00D0ABE190
S1132840ACE12A2B03D0002506950A2612E0251DAB
S113285024680694002C03DA604200230690059352
S1132860501C53782C1C0AE0069B73435D19069593
S1132870537801321D1C303D101C092DF4D96F4AC8
S1132880069D954206DD002601300990FF25321C85
S1132890B4465DE02E2B1CD143782A2B04D0421C75
S11328A00A20002684460CE026680434F343DB0F38
S11328B09C46837802300EE063465E435378761973
S11328C001321D1C303D101C092DF5D90125AC46E3
S11328D001E00026B446682B00D162E103226C2B90
S11328E000D15FE10022DDB26E2B2FD00ADC632B16
S11328F01BD002DC582B28D110E0642B0ED0692B9E
S113290023D10BE0732B13D004DC6F2B06D0702B78
S11329101BD110E0752B01D0782B16D16346002B08
S11329200ED0059B022B11D10CE06346002B0CD179
S1132930002A0AD10AE0782508260322012105E0AD
S1132940012603E00123059300E0FF2501300990EF
S11329500898079BC01808906E2D75D010D8632D69
S113296000D184E006D8252D00D186E0582D00D072
S113297089E022E0642D0FD0692D00D083E00BE0C4
S1132980732D36D003D86F2D00D07CE015E0752D63
S113299013D0782D77D110E0231D07932068032AE4
S11329A006D0022A01D100B202E0012A00D140B2CD
S11329B000910699019502910FE0231D0793206869
S11329C0032A06D0022A01D180B202E0012A00D1F2
S11329D0C0B2069A0091019502928DA9059A3B1CFA
S11329E00396FFF7FBFD041E4DD0154F6F443F1BAC
S11329F059E0231D24680793002C00D1114C0029B1
S1132A0007D060462778013400284CD0B74249DC0F
S1132A1049E06246201C002A07D0321C00F00CF961
S1132A20371C00283FD0071B3DE000F021F9071CAC
S1132A3039E0C046C4FDFFFF36020000FD0100007E
S1132A4033020000B42D0000251D07952368022AD7
S1132A5005D0032A08D0002A00D088E004E06846A4
S1132A602021085A188082E0089D1D607FE02268BA
S1132A70201D0DAB07901A7002E00DAB1D7007947A
S1132A801C1C01270FE0049800F0F2F8089F041EB4
S1132A9006D00B980499221C0A9DA84700286ED0E2
S1132AA03F196EE0371C05983E1C00283FD03023A8
S1132AB0022800D020233D4A6A44137022782D2A2C
S1132AC004D02B2A02D00497202A0CD10497302B4F
S1132AD009D10B98211C01220A9B984700284ED04B
S1132AE0781E013404900599022911D1412D01D099
S1132AF0612D0DD1049D012D41DD0B98211C022275
S1132B000A9DA84700283AD0049D0234023D04954A
S1132B103E1C08E025490B98694401220A9DA847F8
S1132B2000282CD00136069DAE42F3DB049F002F13
S1132B3006D00B98211C3A1C0A9DA84700281ED0D9
S1132B40059D002D10D109E025700B98211C012250
S1132B500A9B9847002812D0013602E0144C202525
S1132B606C4406988642EFDB089DAD190895079CD6
S1132B70099D2B78002B00D00EE6089F01E0012769
S1132B807F42381C8F239B009D44F0BD002504E048
S1132B90012703E0022701E002250595537801325D
S1132BA035E60222437801309DE6C0463602000035
S1132BB03702000030B5C9B2031C1F2A35D944427C
S1132BC003232340041C002B07D0D21A1D1C013DF3
S1132BD021700134002DFAD1C418002905D00D0646
S1132BE0080428430B02014319435009231C0028FD
S1132BF00ED0051C013D196059609960D9601961B6
S1132C0059619961D9612033002DF3D14301E3184F
S1132C10D006400F07D0041C1D1C013C02C5002C2B
S1132C20FBD180001B1803200240002A03D0197036
S1132C30013A0133F9E730BD10B5C9B2821804E096
S1132C400478431C8C4203D0181C9042F8D1002015
S1132C5010BD00B5C9B202E08B4208D0101C037845
S1132C60421C002BF8D14B4259414942084000BD57
S1132C7000B5031C1A1C0133591E09780029F9D127
S1132C80101A00BD38B50B4C0B4D01E008CC984729
S1132C90AC42FBD1094C0A4D01E008CC9847AC4248
S1132CA0FBD1084C084D01E008CC9847AC42FBD15D
S1132CB038BDC046B82D0000B82D0000B82D000066
S1132CC0B82D0000B82D0000BC2D000038B5084C0C
S1132CD0084D01E008CC9847AC42FBD1064C074DA7
S1132CE002E0043C23689847AC42FAD138BDC046A0
S1132CF0B82D0000B82D0000BC2D0000BC2D000034
S1132D0030B5002A20D088421ED00324012321425A
S1132D1007D1204205D1944203D220C9043A20C0ED
S1132D2010E0194209D1184207D1934205D20D8807
S1132D30023A05800231023004E00D78013A057050
S1132D4001310130002AE2D130BD000010B5094C38
S1132D50002C0ED004E06068A268FFF7D1FF0C34A9
S1132D6021680029F7D16368002BF4D1A368002BF4
S1132D70F1D110BDBC2D000010B5054B1C6803E05B
S1132D80A068636898472468002CF9D110BDC04638
S1132D9038010020054B181C002805D0854681B059
S1132DA00020C043009001B0F74670470030002077
S10B2DB0F74670470000000023
S1072DB8E52000000E
S1132DBCBC2D00000000002000000000BC2D000011
S1132DCC00F0FF1F000000000000000000000000E5
S1072DDC00000000EF
S90305ED0A
