S015000058505F4B4C32355F4C45445F50452E6865784A
S113000000300020C9060000A9210000B52100002D
S1130010B5210000B5210000B5210000B521000084
S1130020B5210000B5210000B5210000B521000074
S1130030B5210000B5210000B5210000B521000064
S1130040B5210000B5210000B5210000B521000054
S1130050B5210000B5210000B5210000B521000044
S113006041250000B5210000B5210000B5210000A4
S113007055160000511B000045200000B52100006A
S1130080B5210000B5210000B5210000B521000014
S1130090B5210000B5210000B5210000B521000004
S11300A099590000B5210000B5210000B5210000D8
S11300B0B5210000B5210000B5210000B5210000E4
S1130400FFFFFFFFFFFFFFFFFFFFFFFF7EFFFFFF79
S1130410002934D00123002210B488422CD30124B3
S11304202407A14204D2814202D209011B01F8E748
S1130430E400A14204D2814202D249005B00F8E701
S1130440884201D3401A1A434C08A04202D3001B2D
S11304505C0822438C08A04202D3001B9C08224360
S1130460CC08A04202D3001BDC082243002803D09E
S11304701B0901D00909E3E7101C10BC70470028D0
S113048001D00020C04307B4024802A140180290E2
S113049003BDC046190000000029F0D003B5FFF7E2
S11304A0B9FF0EBC4243891A1847C0467047C0467C
S11304B080B500AFBD4680BD80B500AFBD4680BDF0
S11304C080B500AFBD4680BD80B500AFBD4680BDE0
S11304D080B500AFBD4680BD80B500AFBD4680BDD0
S11304E080B500AFBD4680BD80B500AFBD4680BDC0
S11304F080B500AFBD4680BD80B500AFBD4680BDB0
S113050080B500AFBD4680BD80B500AFBD4680BD9F
S113051080B500AFBD4680BD80B500AFBD4680BD8F
S113052080B500AFBD4680BD80B500AFBD4680BD7F
S113053080B582B000AF7860BD4602B080BDC046D1
S113054080B584B000AF78607B68FB60FB680122F3
S11305505A70BD4604B080BD80B584B000AF7860E9
S11305607B68FB60FB6801221A70BD4604B080BD45
S113057080B582B000AF07E006E002F049F902F06E
S113058057F90A2002F0B0FD1B4B181C402102F061
S113059033FC031C0C2BF0D002F030F902F052F9BA
S11305A002F046FA031C22D000237B6002E07B6841
S11305B001337B607B683E2B07D87A680F4BD318D6
S11305C0181C02F0DDF9031CF1D00C4A7B68D31827
S11305D000221A700A4B181C02F03EFB074B181C31
S11305E002F03AFB074B181C02F036FBC4E70A2062
S11305F002F07AFDC0E7C04600020020400200205D
S1130600647800006C78000080B500AF01F098FEBB
S1130610FFF7AEFF02F0FCF8552000F07DF8312022
S113062000F07AF8FA235B00181C02F05DFD02F07A
S113063009F9552000F05AFA322000F057FAFA234B
S11306405B00181C02F050FD02F016F9552000F072
S113065037FC332000F034FCFA235B00181C02F052
S113066043FD02F023F90D2000F056F80A2000F0B3
S113067053F80D2000F03AFA0A2000F037FA0D2062
S113068000F01EFC0A2000F01BFCFA235B00181C7F
S113069002F02AFDBEE7C04680B582B000AF7860A4
S11306A0FEE7C04680B500AF054A064BD31A054A9B
S11306B0101C00211A1C06F0E2FCBD4680BDC04699
S11306C0000C00200002002007F0BCF801F078FDC7
S11306D0FFF7E8FF07F092F807F02CF807F0C0F8EE
S11306E0044B0020191CFFF78FFF031C181C06F095
S11306F0A1FCC0468002002080B500AF044B1A68FC
S1130700044B101C191C012200F096FEBD4680BD4E
S1130710AC0700209C02002080B582B000AF021C10
S1130720FB1D1A702C4B1B88102B01D10B234EE0A0
S11307302A4B1B78DBB20133DBB2284A191C117037
S1130740012B04D1264BEFF3108072B61870224BA4
S11307501B8801339AB2204B1A80224B1B881A1C27
S11307602149F81D0078885401339AB21D4B1A8030
S11307701C4B1B880F2B02D91A4B00221A801B4BCF
S11307801B881A1C2023134012D1184B1B882022CB
S113079013439AB2154B1A80154B1A68154B1B88D4
S11307A0191C114BCB18101C191C012200F08AFED5
S11307B00A4B1B78DBB2013BDBB2084A191C1170EF
S11307C0002B03D1064B187880F310880023181CE3
S11307D0BD4602B080BDC0469E0200208C030020AE
S11307E0B8070020A2020020A402002084020020F6
S11307F0AC070020A002002080B500AF0F4B002200
S11308001A800F4B00221A800E4B00221A800E4BC6
S113081000221A800D4B00221A800D4B00221A80F0
S11308200C4B00221A80002000F024FD021C0A4B0D
S11308301A60FFF761FFBD4680BDC04684020020F8
S113084086020020880200208A0200209E020020E6
S1130850A0020020A2020020AC07002090B583B0C3
S113086000AF78600024284B1B880F2B22D8264B1E
S11308701B8801339AB2244B1A80244B1B881A1C00
S1130880234908782349885401339AB21F4B1A80AC
S11308901E4B1B880F2B02D91C4B00221A800423E9
S11308A02343DCB2184B1B88102B0DD102232343A6
S11308B0DCB209E0184B1B88402213439AB2164B52
S11308C01A8001232343DCB2221C01231340DBB230
S11308D0002B02D0FFF7F0FD0BE0221C0423134091
S11308E001D0FFF7EDFD221C0223134001D0FFF7D6
S11308F0EFFD0A4B1A68064B101C191C012200F06C
S11309009BFDBD4603B090BD860200208A020020F4
S11309109C0200208C02002084020020AC070020EE
S113092080B584B000AF78603B1C0E3300221A807F
S1130930304B1B881A1C2023134007D03B1C0E335A
S11309403A1C0E32128802210A431A802A4B1B8851
S113095001339AB2284B1A80274B1B880F2B02D9DC
S1130960254B00221A80254B1B88013B9AB2234B4E
S11309701A80224B1B88002B13D01E4B1B8820226D
S113098013439AB21B4B1A801D4B1A681A4B1B88CF
S1130990191C1C4BCB18101C191C012200F092FDD1
S11309A012E0144B1A88DF2313409AB2114B1A80B9
S11309B0154B1B78002B07D13B1C0E333A1C0E320F
S11309C0128801210A431A803B1C0E331A88022321
S11309D0134001D0FFF778FD3B1C0E331A88012326
S11309E01340DBB2002B01D0FFF776FDBD4604B007
S11309F080BDC04684020020A00200209E02002088
S1130A00AC070020A4020020B402002080B584B00A
S1130A1000AF7860234B1A683B1C0C33101C191C64
S1130A2000F09AFEFB68002B36D0FA6802231340CC
S1130A3001D0042300E000231B4A128813439AB216
S1130A40194B1A80FA680823134001D0802300E070
S1130A500023154A128813439AB2134B1A80FB6879
S1130A601A1C01231340DBB2002B01D0012300E048
S1130A7000230D4A128813439AB20B4B1A80FA686A
S1130A800423134001D0022300E00023064A128805
S1130A9013439AB2044B1A80FFF70EFDBD4604B00F
S1130AA080BDC046AC0700208402002080B582B01F
S1130AB000AF7860044B1B88022213439AB2024BA6
S1130AC01A80BD4602B080BD8402002080B500AF0C
S1130AD0044B1A68044B101C191C012200F02AFF55
S1130AE0BD4680BDB0070020D002002080B582B092
S1130AF000AF021CFB1D1A702C4B1B88102B01D15C
S1130B000B234EE02A4B1B78DBB20133DBB2284ABD
S1130B10191C1170012B04D1264BEFF3108072B60F
S1130B201870224B1B8801339AB2204B1A80224B37
S1130B301B881A1C2149F81D0078885401339AB285
S1130B401D4B1A801C4B1B880F2B02D91A4B0022F9
S1130B501A801B4B1B881A1C2023134012D1184BDC
S1130B601B88202213439AB2154B1A80154B1A681E
S1130B70154B1B88191C114BCB18101C191C012276
S1130B8000F01EFF0A4B1B78DBB2013BDBB2084AC4
S1130B90191C1170002B03D1064B187880F31088B0
S1130BA00023181CBD4602B080BDC046D2020020FE
S1130BB08C030020B8070020D6020020D8020020B1
S1130BC0B6020020B0070020D402002080B500AF98
S1130BD00F4B00221A800F4B00221A800E4B00226A
S1130BE01A800E4B00221A800D4B00221A800D4BE6
S1130BF000221A800C4B00221A80002000F0E0FD35
S1130C00021C0A4B1A60FFF761FFBD4680BDC04657
S1130C10B6020020B8020020BA020020BC02002064
S1130C20D2020020D4020020D6020020B007002007
S1130C3090B583B000AF78600024284B1B880F2B3D
S1130C4022D8264B1B8801339AB2244B1A80244B9A
S1130C501B881A1C234908782349885401339AB203
S1130C601F4B1A801E4B1B880F2B02D91C4B0022D2
S1130C701A8004232343DCB2184B1B88102B0DD19C
S1130C8002232343DCB209E0184B1B8840221343A0
S1130C909AB2164B1A8001232343DCB2221C01238F
S1130CA01340DBB2002B02D0FFF726FC0BE0221C22
S1130CB00423134001D0FFF723FC221C022313401A
S1130CC001D0FFF725FC0A4B1A68064B101C191CAF
S1130CD0012200F02FFEBD4603B090BDB8020020F3
S1130CE0BC020020D0020020C0020020B602002076
S1130CF0B007002080B584B000AF78603B1C0E3391
S1130D0000221A80304B1B881A1C2023134007D062
S1130D103B1C0E333A1C0E32128802210A431A80FD
S1130D202A4B1B8801339AB2284B1A80274B1B8805
S1130D300F2B02D9254B00221A80254B1B88013B1F
S1130D409AB2234B1A80224B1B88002B13D01E4BC4
S1130D501B88202213439AB21B4B1A801D4B1A681E
S1130D601A4B1B88191C1C4BCB18101C191C012274
S1130D7000F026FE12E0144B1A88DF2313409AB2C7
S1130D80114B1A80154B1B78002B07D13B1C0E33DB
S1130D903A1C0E32128801210A431A803B1C0E337E
S1130DA01A880223134001D0FFF7AEFB3B1C0E331D
S1130DB01A8801231340DBB2002B01D0FFF7ACFBF0
S1130DC0BD4604B080BDC046B6020020D402002057
S1130DD0D2020020B0070020D8020020E802002040
S1130DE080B584B000AF7860234B1A683B1C0C3389
S1130DF0101C191C00F02AFFFB68002B36D0FA687F
S1130E000223134001D0042300E000231B4A12886C
S1130E1013439AB2194B1A80FA680823134001D07D
S1130E20802300E00023154A128813439AB2134B1F
S1130E301A80FB681A1C01231340DBB2002B01D07B
S1130E40012300E000230D4A128813439AB20B4B8E
S1130E501A80FA680423134001D0022300E000231F
S1130E60064A128813439AB2044B1A80FFF744FBD4
S1130E70BD4604B080BDC046B0070020B6020020C5
S1130E8080B582B000AF7860044B1B880222134304
S1130E909AB2024B1A80BD4602B080BDB602002051
S1130EA080B500AF044B1A68044B101C191C0122B6
S1130EB000F0BAFFBD4680BDB40700200403002043
S1130EC080B582B000AF021CFB1D1A702C4B1B882E
S1130ED0102B01D10B234EE02A4B1B78DBB20133DC
S1130EE0DBB2284A191C1170012B04D1264BEFF3F5
S1130EF0108072B61870224B1B8801339AB2204BB3
S1130F001A80224B1B881A1C2149F81D007888542A
S1130F1001339AB21D4B1A801C4B1B880F2B02D92C
S1130F201A4B00221A801B4B1B881A1C20231340C7
S1130F3012D1184B1B88202213439AB2154B1A80E6
S1130F40154B1A68154B1B88191C114BCB18101C18
S1130F50191C012200F0AEFF0A4B1B78DBB2013BE7
S1130F60DBB2084A191C1170002B03D1064B187808
S1130F7080F310880023181CBD4602B080BDC04613
S1130F80060300208C030020B80700200A03002079
S1130F900C030020EA020020B4070020080300200C
S1130FA080B500AF0F4B00221A800F4B00221A802D
S1130FB00E4B00221A800E4B00221A800D4B002289
S1130FC01A800D4B00221A800C4B00221A8000203C
S1130FD000F070FE021C0A4B1A60FFF761FFBD4669
S1130FE080BDC046EA020020EC020020EE02002090
S1130FF0F002002006030020080300200A0300205A
S1131000B407002090B583B000AF78600024284B6B
S11310101B880F2B22D8264B1B8801339AB2244BF2
S11310201A80244B1B881A1C2349087823498854A6
S113103001339AB21F4B1A801E4B1B880F2B02D907
S11310401C4B00221A8004232343DCB2184B1B8858
S1131050102B0DD102232343DCB209E0184B1B886B
S1131060402213439AB2164B1A8001232343DCB265
S1131070221C01231340DBB2002B02D0FFF730FA0D
S11310800BE0221C0423134001D0FFF72DFA221C8D
S11310900223134001D0FFF743FA0A4B1A68064BA8
S11310A0101C191C012200F0BFFEBD4603B090BD08
S11310B0EC020020F002002004030020F4020020CF
S11310C0EA020020B407002080B584B000AF786045
S11310D03B1C0E3300221A80304B1B881A1C202321
S11310E0134007D03B1C0E333A1C0E3212880221E7
S11310F00A431A802A4B1B8801339AB2284B1A8060
S1131100274B1B880F2B02D9254B00221A80254B15
S11311101B88013B9AB2234B1A80224B1B88002B5D
S113112013D01E4B1B88202213439AB21B4B1A80E8
S11311301D4B1A681A4B1B88191C1C4BCB18101C0E
S1131140191C012200F0B6FE12E0144B1A88DF23AA
S113115013409AB2114B1A80154B1B78002B07D100
S11311603B1C0E333A1C0E32128801210A431A80AA
S11311703B1C0E331A880223134001D0FFF7B8F941
S11311803B1C0E331A8801231340DBB2002B01D021
S1131190FFF7CAF9BD4604B080BDC046EA0200208C
S11311A00803002006030020B40700200C030020DD
S11311B01C03002080B584B000AF7860234B1A680C
S11311C03B1C0C33101C191C00F0BAFFFB68002BED
S11311D036D0FA680223134001D0042300E0002330
S11311E01B4A128813439AB2194B1A80FA680823CF
S11311F0134001D0802300E00023154A12881343D2
S11312009AB2134B1A80FB681A1C01231340DBB2F9
S1131210002B01D0012300E000230D4A1288134360
S11312209AB20B4B1A80FA680423134001D00223AC
S113123000E00023064A128813439AB2044B1A8032
S1131240FFF74EF9BD4604B080BDC046B407002088
S1131250EA02002080B582B000AF7860044B1B889E
S1131260022213439AB2024B1A80BD4602B080BDDB
S1131270EA02002080B584B000AF7860634BFB6065
S1131280FB6800221A81FB6800221A82FB68002294
S1131290DA60FB6800225A82FB6800221A83FB682A
S11312A000225A61FB687A68DA61594BFA681A605D
S11312B0584A5849584BCB588021C9001943564BBA
S11312C0D150564B554A5268111C554A0A40802148
S11312D089000A435A60514B504A9268111C504A83
S11312E00A40802189000A439A604E4A4D49C3232B
S11312F09B00CB58FF218B4380211943C3239B00C0
S1131300D150484B474A1268802149010A431A6068
S1131310454B454AD278D2B208218A43D2B2DA7018
S1131320414B414AD278D2B204218A43D2B2DA7014
S1131330FB6800221A80FB6800225A603A4B0022A4
S11313409A70394B00229A71374B00225A71314AF4
S11313503049364BCB58191C354B0B408021C904FE
S11313601943324BD150304B2F4A1278D2B2D2B2F9
S11313701F218A43D2B204210A43D2B2D2B21A70D4
S1131380294BE2225A70284B274A927AD2B2D2B21F
S11313901F218A43D2B203210A43D2B2D2B29A7233
S11313A0214B214AD27AD2B2D2B202210A43D2B21A
S11313B0D2B2DA721C4B1C4AD278D2B2D2B2082111
S11313C00A43D2B2D2B2DA70174B174AD278D2B2E9
S11313D0D2B204210A43D2B2D2B2DA70124B124A08
S11313E0D278D2B220210A43D2B2DA700E4B0E4A1E
S11313F09279D2B20F210A43D2B29A710D4BFA6894
S11314005A60FB68181CBD4604B080BD2003002050
S11314104003002000700440341000000090044099
S1131420FFF8FFFE00E100E000A006400410000009
S1131430FFFFFFF39803002080B586B000AFF8608B
S1131440B960BB1D1A80FB687B61BB1D1B88002B28
S113145001D184232DE07B691B8A002B01D0082352
S113146027E0164B1B78DBB20133DBB2134A191C9D
S11314701170012B04D1124BEFF3108072B6187067
S11314807B69BA68DA607B69BA1D12881A827B6943
S113149000221A81094B1B78DBB2013BDBB2074AFD
S11314A0191C1170002B03D1054B187880F3108898
S11314B00023181CBD4606B080BDC0468C03002026
S11314C0B807002080B586B000AFF860B960BB1DD6
S11314D01A80FB687B61BB1D1B88002B01D1842310
S11314E042E07B691B8B002B01D008233CE0204B9E
S11314F01B78DBB20133DBB21D4A191C1170012BBE
S113150004D11C4BEFF3108072B618707B69BA6873
S11315105A617B69BA1D12881A837B6900225A8238
S11315207B691B88012213439AB27B691A80124B90
S1131530114AD278D2B2802149420A43D2B2DA7037
S11315400D4B0D4A9279D2B29A71094B1B78DBB2DA
S1131550013BDBB2064A191C1170002B03D1054B69
S1131560187880F310880023181CBD4606B080BD8F
S11315708C030020B807002000A0064090B583B07B
S113158000AF7860124BDB79DBB21C1C7B681B8AD2
S1131590002B1AD07B68DB68E2B21A705A1C7B6895
S11315A0DA607B681B8901339AB27B681A817B6895
S11315B01A897B681B8A9A4207D17B6800221A82A7
S11315C07B68DB69181CFFF749F9BD4603B090BD81
S11315D000A0064080B582B000AF78607B685A8A6C
S11315E07B681B8B9A421CD2194A7B685B69197809
S11315F0D1715A1C7B685A617B685B8A01339AB249
S11316007B685A827B685A8A7B681B8B9A421CD1FE
S11316107B6800221A837B68DB69181CFFF780F95A
S113162013E00B4B0A4AD278D1B27F220A40D2B2DD
S1131630DA70074B064A9279D2B29A717B681B889A
S1131640012293439AB27B681A80BD4602B080BDE2
S113165000A00640F0B5474680B482B000AF3C4BD2
S11316601B687B603B4B1B79DBB21C1C00250026EE
S1131670221C0F2313404DD0364B0F221A71354BC9
S1131680DB79DBB29846221C0223134013D0221CC0
S1131690202313400CD04246002A09D1731CDEB229
S11316A07B681B88022213439AB27B681A8002E08B
S11316B004232B439DB2221C0823134002D0012390
S11316C02B439DB2221C01231340DBB2002B02D01A
S11316D002232B439DB2221C0423134002D008236F
S11316E02B439DB27B685A682B1C1A437B685A6053
S11316F02023221C9A43131C9CB2002E05D07B6825
S1131700DB69181CFFF7D2F904E07B68DB69181C5D
S1131710FFF77CF9221C2023134003D07B68181C9C
S1131720FFF72CFF7B681B881A1C01231340DBB2D4
S1131730002B07D0221C8023134003D07B68181C85
S1131740FFF748FFBD4602B004BC9046F0BDC0465A
S11317504003002000A0064080B584B000AF78604C
S113176039607B68FB60144B1B78DBB20133DBB25E
S1131770114A191C1170012B04D1104BEFF3108086
S113178072B61870FB685A683B681A60FB680022DE
S11317905A60094B1B78DBB2013BDBB2064A191CC9
S11317A01170002B03D1054B187880F310880023A7
S11317B0181CBD4604B080BD8C030020B80700206F
S11317C080B584B000AF7860504BFB60FB680022AA
S11317D01A81FB6800221A82FB680022DA60FB6827
S11317E000225A82FB6800221A83FB6800225A6195
S11317F0FB687A68DA61464BFA681A60454A4549DB
S1131800454BCB58802109011943434BD150434BDD
S1131810424A5268111C424A0A40C02189000A43C4
S11318205A603E4B3D4A1268111C3D4A0A40C02191
S113183089000A431A603B4A3A49C3239B00CB58A8
S1131840191C394B0B40802109021943C3239B0007
S1131850D150344B334A1268802189010A431A60FB
S1131860324B324AD278D2B208218A43D2B2DA70E9
S11318702E4B2E4AD278D2B204218A43D2B2DA70E5
S1131880FB6800221A80FB6800225A60274B002262
S11318909A70264B00229A71244B00225A71234BD2
S11318A0224A1278D2B21F218A43D2B21A701F4B35
S11318B09C225A701D4B1D4AD278D2B2D2B2082152
S11318C00A43D2B2D2B2DA70184B184AD278D2B2E2
S11318D0D2B204210A43D2B2D2B2DA70134B134A01
S11318E0D278D2B220210A43D2B2DA700F4B0F4A17
S11318F09279D2B20F210A43D2B29A710C4BFA6890
S11319009A60FB68181CBD4604B080BD44030020E7
S113191064030020007004403410000000D0044030
S1131920FFF8FFFE00E100E0FF00FFFF00B006400B
S11319309803002080B586B000AFF860B960BB1D85
S11319401A80FB687B61BB1D1B88002B01D184239B
S11319502DE07B691B8A002B01D0082327E0164B5E
S11319601B78DBB20133DBB2134A191C1170012B53
S113197004D1124BEFF3108072B618707B69BA6809
S1131980DA607B69BA1D12881A827B6900221A8187
S1131990094B1B78DBB2013BDBB2074A191C1170FF
S11319A0002B03D1054B187880F310880023181CF2
S11319B0BD4606B080BDC0468C030020B807002099
S11319C080B586B000AFF860B960BB1D1A80FB68B3
S11319D07B61BB1D1B88002B01D1842342E07B6902
S11319E01B8B002B01D008233CE0204B1B78DBB27F
S11319F00133DBB21D4A191C1170012B04D11C4B9D
S1131A00EFF3108072B618707B69BA685A617B690B
S1131A10BA1D12881A837B6900225A827B691B884B
S1131A20012213439AB27B691A80124B114AD2786D
S1131A30D2B2802149420A43D2B2DA700D4B0D4A28
S1131A409279D2B29A71094B1B78DBB2013BDBB2BB
S1131A50064A191C1170002B03D1054B187880F32A
S1131A6010880023181CBD4606B080BD8C030020DE
S1131A70B807002000B0064090B583B000AF78608E
S1131A80124BDB79DBB21C1C7B681B8A002B1AD03F
S1131A907B68DB68E2B21A705A1C7B68DA607B6888
S1131AA01B8901339AB27B681A817B681A897B6827
S1131AB01B8A9A4207D17B6800221A827B68DB6901
S1131AC0181CFFF7B5F8BD4603B090BD00B0064042
S1131AD080B582B000AF78607B685A8A7B681B8BC4
S1131AE09A421CD2194A7B685B691978D1715A1CD5
S1131AF07B685A617B685B8A01339AB27B685A823D
S1131B007B685A8A7B681B8B9A421CD17B680022B3
S1131B101A837B68DB69181CFFF7ECF813E00B4BA6
S1131B200A4AD278D1B27F220A40D2B2DA70074B85
S1131B30064A9279D2B29A717B681B880122934338
S1131B409AB27B681A80BD4602B080BD00B00640E0
S1131B50F0B5474680B482B000AF3A4B1B687B6057
S1131B60394B1B79DBB21C1C00250026221C0F23D9
S1131B7013404AD0344BDB79DBB29846221C022353
S1131B80134013D0221C202313400CD04246002AB9
S1131B9009D1731CDEB27B681B88022213439AB2FC
S1131BA07B681A8002E004232B439DB2221C082385
S1131BB0134002D001232B439DB2221C0123134066
S1131BC0DBB2002B02D002232B439DB2221C042340
S1131BD0134002D008232B439DB27B685A682B1C08
S1131BE01A437B685A602023221C9A43131C9CB21C
S1131BF0002E05D07B68DB69181CFFF741F904E06F
S1131C007B68DB69181CFFF7EBF8221C20231340C8
S1131C1003D07B68181CFFF72FFF7B681B881A1CF6
S1131C2001231340DBB2002B07D0221C8023134076
S1131C3003D07B68181CFFF74BFFBD4602B004BC01
S1131C409046F0BD6403002000B0064080B584B027
S1131C5000AF786039607B68FB60144B1B78DBB2A3
S1131C600133DBB2114A191C1170012B04D1104B42
S1131C70EFF3108072B61870FB685A683B681A60FC
S1131C80FB6800225A60094B1B78DBB2013BDBB2D4
S1131C90064A191C1170002B03D1054B187880F3E8
S1131CA010880023181CBD4604B080BD8C0300209E
S1131CB0B807002080B584B000AF7860504BFB605B
S1131CC0FB6800221A81FB6800221A82FB6800224A
S1131CD0DA60FB6800225A82FB6800221A83FB68E0
S1131CE000225A61FB687A68DA61464BFA681A6026
S1131CF0454A4549454BCB58802149011943434B3B
S1131D00D150434B424A9268111C424A0A40C021B6
S1131D1089000A439A603E4B3D4AD268111C3D4AF1
S1131D200A40C02189000A43DA603B4A3A49C32386
S1131D309B00CB58191C394B0B40802109041943D3
S1131D40C3239B00D150344B334A12688021C9010C
S1131D500A431A60324B324AD278D2B208218A43FB
S1131D60D2B2DA702E4B2E4AD278D2B204218A43F0
S1131D70D2B2DA70FB6800221A80FB6800225A6033
S1131D80274B00229A70264B00229A71244B002282
S1131D905A71234B224A1278D2B21F218A43D2B2FB
S1131DA01A701F4B9C225A701D4B1D4AD278D2B216
S1131DB0D2B208210A43D2B2D2B2DA70184B184A0E
S1131DC0D278D2B2D2B204210A43D2B2D2B2DA70F9
S1131DD0134B134AD278D2B220210A43D2B2DA701A
S1131DE00F4B0F4A9279D2B20F210A43D2B29A71A1
S1131DF00C4BFA68DA60FB68181CBD4604B080BD61
S1131E0068030020880300200070044034100000A0
S1131E1000C00440FFF8FFFE00E100E0FFFF00FF08
S1131E2000C006409803002080B586B000AFF8607B
S1131E30B960BB1D1A80FB687B61BB1D1B88002B2E
S1131E4001D184232DE07B691B8A002B01D0082358
S1131E5027E0164B1B78DBB20133DBB2134A191CA3
S1131E601170012B04D1124BEFF3108072B618706D
S1131E707B69BA68DA607B69BA1D12881A827B6949
S1131E8000221A81094B1B78DBB2013BDBB2074A03
S1131E90191C1170002B03D1054B187880F310889E
S1131EA00023181CBD4606B080BDC0468C0300202C
S1131EB0B807002080B586B000AFF860B960BB1DDC
S1131EC01A80FB687B61BB1D1B88002B01D1842316
S1131ED042E07B691B8B002B01D008233CE0204BA4
S1131EE01B78DBB20133DBB21D4A191C1170012BC4
S1131EF004D11C4BEFF3108072B618707B69BA687A
S1131F005A617B69BA1D12881A837B6900225A823E
S1131F107B691B88012213439AB27B691A80124B96
S1131F20114AD278D2B2802149420A43D2B2DA703D
S1131F300D4B0D4A9279D2B29A71094B1B78DBB2E0
S1131F40013BDBB2064A191C1170002B03D1054B6F
S1131F50187880F310880023181CBD4606B080BD95
S1131F608C030020B807002000C0064090B583B061
S1131F7000AF7860124BDB79DBB21C1C7B681B8AD8
S1131F80002B1AD07B68DB68E2B21A705A1C7B689B
S1131F90DA607B681B8901339AB27B681A817B689B
S1131FA01A897B681B8A9A4207D17B6800221A82AD
S1131FB07B68DB69181CFFF725F8BD4603B090BDAC
S1131FC000C0064080B582B000AF78607B685A8A52
S1131FD07B681B8B9A421CD2194A7B685B6919780F
S1131FE0D1715A1C7B685A617B685B8A01339AB24F
S1131FF07B685A827B685A8A7B681B8B9A421CD105
S11320007B6800221A837B68DB69181CFFF75CF885
S113201013E00B4B0A4AD278D1B27F220A40D2B2E3
S1132020DA70074B064A9279D2B29A717B681B88A0
S1132030012293439AB27B681A80BD4602B080BDE8
S113204000C00640F0B5474680B482B000AF3A4BBA
S11320501B687B60394B1B79DBB21C1C00250026F6
S1132060221C0F2313404AD0344BDB79DBB2984651
S1132070221C0223134013D0221C202313400CD013
S11320804246002A09D1731CDEB27B681B880222F7
S113209013439AB27B681A8002E004232B439DB257
S11320A0221C0823134002D001232B439DB2221C7F
S11320B001231340DBB2002B02D002232B439DB239
S11320C0221C0423134002D008232B439DB27B68B7
S11320D05A682B1C1A437B685A602023221C9A439B
S11320E0131C9CB2002E05D07B68DB69181CFFF71B
S11320F0B1F804E07B68DB69181CFFF75BF8221C6D
S11321002023134003D07B68181CFFF72FFF7B6844
S11321101B881A1C01231340DBB2002B07D0221C9E
S11321208023134003D07B68181CFFF74BFFBD4688
S113213002B004BC9046F0BD8803002000C00640F5
S113214080B584B000AF786039607B68FB60144B65
S11321501B78DBB20133DBB2114A191C1170012B5D
S113216004D1104BEFF3108072B61870FB685A68F4
S11321703B681A60FB6800225A60094B1B78DBB28B
S1132180013BDBB2064A191C1170002B03D1054B2D
S1132190187880F310880023181CBD4604B080BD55
S11321A08C030020B807002080B500AFFEF780F94B
S11321B0BD4680BD80B500AFFFBEBD4680BDC046F4
S11321C080B500AF504A5149514BD150514A8823F0
S11321D05B010021D1504F4A4E494F4BCB58C82187
S11321E0890119434C4BD1504A4A4C4B4C49D1506C
S11321F0484A48494B4BCB58802149021943494B23
S1132200D150444B434A1268111C474A0A401A6091
S1132210404A4049434BCB58191C444B0B40802146
S1132220490419433F4BD150414B414A926C111C14
S1132230404A0A409A643E4B3D4AD26C111C3D4AC6
S11322400A40DA643C4B80221A703C4B24225A70B8
S11322503A4B9A221A70394B384AD278D1B21F229B
S11322600A40D2B2DA70354B01221A71334B002284
S11322705A71C046314B9B79DBB21A1C10231340B0
S1132280F8D1C0462D4B9B79DBB21A1C0C231340AA
S1132290082BF7D1284B80221A70284B9A221A70E7
S11322A0264B24225A70254B01221A71234B4022BB
S11322B05A71C046214B9B79DBB21A1C0C23134084
S11322C0082BF7D1C0461D4B9B79DBB21A1C402367
S11322D01340F8D0184B80221A70184B1A221A7027
S11322E0164B24225A70154B01221A71134B4022AB
S11322F05A71C046114B9B79DBB21A1C0C23134054
S11323000C2BF7D1BD4680BD00E000E000000000CA
S1132310080D000000700440381000004410000054
S11323200000011004100000FFFFF3FFFFFFFFFC9B
S113233000900440FFF8FFFE0050064000400640B5
S113234080B500AF3D4B3D4A1269111C3C4A0A401E
S1132350E021C9000A431A613A4B3A4A5279D2B28F
S11323601F218A43D2B25A71364B364A1279D2B2FD
S113237007218A43D2B21A71334B334A1278D2B24C
S1132380D2B273218A43D2B250210A43D2B2D2B21A
S11323901A702D4B2C4A5278D2B2D2B263218A439E
S11323A0D2B240210A43D2B2D2B25A70264B264A44
S11323B09278D2B219218A43D2B29A70234B002266
S11323C01A70234A2249C6239B00CB58FF21181CAC
S11323D08843011CC6239B00D150184B174A126D29
S11323E0111C174A0A40E021C9000A431A65184A19
S11323F01749C1239B00CB58191C164B1940C12304
S11324009B00D150002000F027F800F00BFA00F0F8
S113241023FA00F03BFA00F053FAFEF7EDF9FEF769
S1132420D5FBFEF7BDFD00F073FD00F0DBFB00F013
S113243009FB00F03DFD62B6BD4680BD009004403E
S1132440FFF8FFFE00F0074000D0074000E007401F
S113245000E100E0FFFF00FF80B584B000AF7860CA
S1132460214BFB60FB687A681A60204B1F4A126894
S1132470111C1F4A0A401A601C4B1C4A5269F02165
S113248009040A435A611B4B1A4A126D111C1A4A59
S11324900A40802149000A431A65164B154A526DB9
S11324A0111C154A0A40802149000A435A65114B00
S11324B0104A926D111C104A0A40802149000A43B7
S11324C09A650C4B0B4AD26D111C0B4A0A408021B1
S11324D049000A43DA65094BFA681A60FB68181C5C
S11324E0BD4604B080BDC0469003002000F10F40FB
S11324F0FFFF0FFF00D00440FFF8FFFE9803002009
S113250080B582B000AF78603960044B3968F0223E
S113251012040A405A60BD4602B080BD00F10FF8B3
S113252080B582B000AF78603960044B3968F0221E
S113253012040A40DA60BD4602B080BD00F10FF813
S113254090B583B000AFAB4B1B683B60BB1D002252
S11325501A80A94BDB78DCB2A74BA74AD278D2B257
S1132560D2B212218A43D1B2E2B20A43D2B2D2B277
S1132570DA70A14B9B78DBB21A1C2023134000D1E4
S113258001E19D4B9B78DBB21A1C1023134000D150
S1132590B8E0221C01231340DBB2002B2AD0964B57
S11325A0954A9278D2B220218A43D2B29A70924B41
S11325B0914A9278D2B210218A43D2B29A703B687F
S11325C000229A813B680022DA803B681B78012252
S11325D09343DAB23B681A703B681B7806221343B4
S11325E0DAB23B681A70BB1DBA1D128808210A436F
S11325F01A80EAE03B681B781A1C0223134000D1BE
S113260074E03B689B89002B0ED03B689B89013B9F
S11326109AB23B689A81784A3B681B6919781171B0
S11326205A1C3B681A61D0E03B68DB88002B3CD025
S11326303B681B781A1C042313401FD03B68DB88BB
S1132640012B08D16C4B6C4A9278D2B208210A4310
S1132650D2B29A7007E0684B674A9278D2B20821E6
S11326608A43D2B29A70644B634A9278D2B21021F0
S11326708A43D2B29A70604B1B79A6E05E4B5E4AE5
S11326809278D2B204210A43D2B29A705A4B3A6871
S1132690527901210A43D2B21A713B681B78042291
S11326A01343DAB23B681A708FE03B681B7801224F
S11326B09343DAB23B681A703B685B78012B0FD105
S11326C04D4B4D4A9278D2B220218A43D2B29A70AD
S11326D0494B494A9278D2B210218A43D2B29A70B5
S11326E03B685B69181CFDF72BFF6EE0424B3A68B0
S11326F012791A713B681B7802221343DAB23B68E1
S11327001A7062E03B68DB88013B9AB23B68DA806E
S11327103B68DB88002B0CD03B68DB88012B1FD186
S1132720354B354A9278D2B208210A43D2B29A7014
S113273016E03B681B7801229343DAB23B681A70B7
S11327402D4B2D4A9278D2B220218A43D2B29A706C
S1132750294B294A9278D2B208218A43D2B29A707C
S11327603B689B68244A1279D2B21A705A1C3B689F
S11327709A603B68DB88002B27D13B685B69181C97
S1132780FDF7EAFE21E0221C102313401DD03B6814
S113279000229A813B680022DA803B6801225A7049
S11327A03B681B7801229343DAB23B681A70124BE0
S11327B0114A9278D2B210218A43D2B29A70BB1DC8
S11327C0BA1D128804210A431A80BB1D1B88002BE2
S11327D00CD03B685A88BB1D1B8813439AB23B68D4
S11327E05A803B685B69181CFDF7A2FEBD4603B026
S11327F090BDC046940300200060064080B500AF41
S113280080235B030020191CFFF77AFEBD4680BDC0
S113281080B500AF80235B030020191CFFF780FE06
S1132820BD4680BD80B500AFFFF7E8FFBD4680BD63
S113283080B500AF80239B030020191CFFF760FEC6
S1132840BD4680BD80B500AF80239B030020191CCA
S1132850FFF766FEBD4680BD80B500AFFFF7E8FF19
S1132860BD4680BD80B500AF8023DB030020191C6A
S1132870FFF746FEBD4680BD80B500AF8023DB0375
S11328800020191CFFF74CFEBD4680BD80B500AF8B
S1132890FFF7E8FFBD4680BD80B500AF80231B0471
S11328A00020191CFFF72CFEBD4680BD80B500AF8B
S11328B080231B040020191CFFF732FEBD4680BD97
S11328C080B500AFFFF7E8FFBD4680BD80B584B09A
S11328D000AF021CFB1D1A703B1C0F3300221A7040
S11328E0224B1B78DBB20133DBB2204A191C117076
S11328F0012B04D11E4BEFF3108072B618701D4BE0
S11329001B78402B04D13B1C0F330B221A7018E0A8
S1132910194B1B78194AF91D0978D154154B1B78AA
S11329200133DAB2134B1A70134B1B780133DAB24A
S1132930114B1A70104B1B78402B02D10E4B002206
S11329401A700A4B1B78DBB2013BDBB2074A191C35
S11329501170002B03D1064B187880F310883B1CB0
S11329600F331B78181CBD4604B080BD8C030020B7
S1132970B8070020EE030020EC030020AC03002085
S113298080B584B000AF78603B1C0F3300221A700E
S1132990224B1B78DBB20133DBB2204A191C1170C5
S11329A0012B04D11E4BEFF3108072B618701D4B2F
S11329B01B78002B04D13B1C0F330A221A7018E039
S11329C0194B1B78194AD25C7B681A70154B1B781B
S11329D0013BDAB2134B1A70134B1B780133DAB292
S11329E0114B1A70104B1B78402B02D10E4B002256
S11329F01A700A4B1B78DBB2013BDBB2074A191C85
S1132A001170002B03D1064B187880F310883B1CFF
S1132A100F331B78181CBD4604B080BD8C03002006
S1132A20B8070020EE030020ED030020AC030020D3
S1132A3080B500AF024B1B78181CBD4680BDC04654
S1132A40EE03002080B500AF054B00221A70054B41
S1132A5000221A70044B00221A70BD4680BDC04685
S1132A60EC030020ED030020EE03002080B584B0C9
S1132A7000AF021CFB1D1A703B1C0F3300221A709E
S1132A80224B1B78DBB20133DBB2204A191C1170D4
S1132A90012B04D11E4BEFF3108072B618701D4B3E
S1132AA01B78402B04D13B1C0F330B221A7018E007
S1132AB0194B1B78194AF91D0978D154154B1B7809
S1132AC00133DAB2134B1A70134B1B780133DAB2A9
S1132AD0114B1A70104B1B78402B02D10E4B002265
S1132AE01A700A4B1B78DBB2013BDBB2074A191C94
S1132AF01170002B03D1064B187880F310883B1C0F
S1132B000F331B78181CBD4604B080BD8C03002015
S1132B10B80700203204002030040020F003002015
S1132B2080B584B000AF78603B1C0F3300221A706C
S1132B30224B1B78DBB20133DBB2204A191C117023
S1132B40012B04D11E4BEFF3108072B618701D4B8D
S1132B501B78002B04D13B1C0F330A221A7018E097
S1132B60194B1B78194AD25C7B681A70154B1B7879
S1132B70013BDAB2134B1A70134B1B780133DAB2F0
S1132B80114B1A70104B1B78402B02D10E4B0022B4
S1132B901A700A4B1B78DBB2013BDBB2074A191CE3
S1132BA01170002B03D1064B187880F310883B1C5E
S1132BB00F331B78181CBD4604B080BD8C03002065
S1132BC0B80700203204002031040020F003002064
S1132BD080B500AF024B1B78181CBD4680BDC046B3
S1132BE03204002080B500AF054B00221A70054B5B
S1132BF000221A70044B00221A70BD4680BDC046E4
S1132C0030040020310400203204002080B582B05A
S1132C1000AF021CFB1D1A70FB1D1B78181CFFF76C
S1132C2025FF031C0B2B0FD10A4B181C402100F06D
S1132C30E3F8031C01D00B2307E0FB1D1B78181CD1
S1132C40FFF714FF031C00E00023181CBD4602B06C
S1132C5080BDC0463804002080B584B000AF7860E1
S1132C603B1C0F3300221A700DE07B681B78181C84
S1132C70FFF7CCFF031C03D03B1C0F330B221A704D
S1132C807B6801337B607B681B78002BEDD13B1C98
S1132C900F331B78181CBD4604B080BD80B586B0C8
S1132CA000AF3A60FB1D021C1A70BB1D0A1C1A708F
S1132CB0BB1D1B78002B03D1394B00221A706CE02A
S1132CC0BB1D1B78022B03D1354B01221A7064E023
S1132CD0BB1D1B78042B46D1324B1B78DBB2012B76
S1132CE041D13B683B613B691A795B791B02134311
S1132CF09BB23A1C0E3299B2402900D9402313806A
S1132D003B1C173300221A701DE0C0463B691A7839
S1132D10597809020A43997809040A43DB781B06A7
S1132D2013431A1C3B1C17331B78D3181B78181C2D
S1132D30FFF7CCFD031CE9D13B1C17333A1C1732B7
S1132D40127801321A703B1C17331B789BB23A1C61
S1132D500E3212889A42D8D8002002210022002381
S1132D6002F076F819E0BB1D1B78032B0BD10D4B39
S1132D701B78DBB2012B06D10020022100220023A4
S1132D8002F066F809E0BB1D1B78052B05D1044B46
S1132D9000221A70034B00221A70BD4606B080BD93
S1132DA0330400203404002080B582B000AF3A60C0
S1132DB0FB1D021C1A70BB1D0A1C1A700C4B1B78DD
S1132DC0DBB2012B0ED1BB1D1B78222B03D1094B87
S1132DD001221A7006E0BB1D1B78212B02D1054B82
S1132DE000221A70034B01221A70BD4602B080BD46
S1132DF0330400203404002080B584B000AF786030
S1132E00396001F0A3FA284B1B78DBB2012B46D1C1
S1132E10264B1B78DBB2012B41D1FFF7D9FE031CF3
S1132E203BD03B1C0F3300221A7006E03B1C0F33CF
S1132E303A1C0F32127801321A703B1C0F331A7885
S1132E403B689A4209D23B1C0F331B787A68D3182B
S1132E50181CFFF765FE031CE8D03B1C0F331B78DE
S1132E609BB27A680020012100F07AFD031C01D096
S1132E70122315E03B1C0F331A7807231340DBB2EF
S1132E80002B0AD17B68002001211A1C002300F0CA
S1132E9067FD031C01D0122302E0002300E00C2391
S1132EA0181CBD4604B080BD330400203404002047
S1132EB090B585B002AFFC1D124A134B012100915D
S1132EC00020111C002200F095FC031C2370FB1D44
S1132ED01B78002B01D01B2310E00C4A0B498023E4
S1132EE0CB588021490419438023D150074B074A0A
S1132EF01268802149040A431A600023181CBD4645
S1132F0003B090BD9D2C0000A92D000000E100E05D
S1132F1080B500AF584A5849584BCB588021C90254
S1132F201943564BD150544A5349554BCB588021E1
S1132F30C9021943524BD150524A52499423CB5C93
S1132F40DBB202210B43D9B29423D1544D4A8023DE
S1132F505B00C021D1544B4BFF221A74494A802391
S1132F60FF21D154474A8823FF21D154454A842361
S1132F70FF21D154434A8C230021D154414A862352
S1132F805B006021D1543F4B00221A753D4A9823BF
S1132F900021D1543B4AC0230021D154394AC423CF
S1132FA00021D154374AC8230021D154354ACC23B7
S1132FB00021D154334AD0230021D154314AD4239F
S1132FC00021D1542F4AD8230021D1542D4ADC2387
S1132FD00021D1542B4AE0230021D154294AE4236F
S1132FE00021D154274AE8230021D154254AEC2357
S1132FF00021D154234AF0230021D154214AF4233F
S11330000021D1541F4AF8230021D1541D4AFC2326
S11330100021D1541B4A1C4B1B0ADBB201218B43F8
S1133020D9B29C23D154174A174B1B0CD9B2B023E5
S1133030D154144A144B1B0ED9B2B423D154114A9F
S1133040AC230021D1540F4B00221A770D4A84235C
S11330505B000021D1540B4A0A499423CB5CDBB2B8
S1133060DBB22B218B43DBB201210B43DBB2D9B2A0
S11330709423D154BD4680BD007004403410000038
S113308004100000002007400008002080B582B032
S113309000AFFB1D00221A7007E0C046FB1D1B7821
S11330A0DBB20133DAB2FB1D1A70FB1D1B78DBB2F5
S11330B0632BF2D9BD4602B080BDC04680B582B054
S11330C000AF021CBB1D1A8006E0FFF7DFFFBB1D2B
S11330D0BA1D1288643A1A80BB1D1B88642BF4D86D
S11330E0BD4602B080BDC04680B582B000AF021CB0
S11330F0BB1D1A8009E0FA239B00181CFFF7DEFFB2
S1133100BB1DBA1D1288013A1A80BB1D1B88002BF7
S1133110F1D1BD4602B080BD90B589B000AF7860F2
S11331207B681B78181C02F01FFF031CBB613B1C4F
S11331301F3300221A7014E03B1C1F331A78B9693C
S1133140131C9B009B18CB1801331A787B685B789F
S11331509A420ED03B1C1F333A1C1F3212780132A4
S11331601A70BB691B783A1C1F3212789A42E3D357
S113317000E0C0463B1C1F331A78391C17313D4808
S1133180131CDB009B189B00C318DB780B707B6857
S11331901B7A002B13D13B1C1F331A783549131C9F
S11331A0DB009B189B00CB189B780133D9B23148C4
S11331B0131CDB009B189B00C3180A1C9A703B1C51
S11331C01F331A78391C16312A48131CDB009B184C
S11331D09B00C3189B780B703A1C16323B1C1733A8
S11331E012781B789A4228D03B1C1F331A783B1C58
S11331F01633197803230B40391C0C311D48DC00AD
S1133200131CDB009B189B00E21804238218D218BD
S11332100B1C03CA03C33B1C0C3318783B1C0C3334
S113322059783B1C0C335A889B881B0413431A1C83
S11332303B1C0C33DB8801F02DF80F4B1B68002B73
S113324015D03B1C1E3303221A707B681B7A002B9B
S113325003D03B1C1E3305221A70074B1B687A6887
S113326010787A680832391C1E3109789847BD46AF
S113327009B090BD800400207804002090B589B086
S113328000AF78607B681B78181C02F06DFE031C8D
S1133290BB617B681A79597909020A43997909044F
S11332A00A43DB791B0613431A1C3B1C10331A60B8
S11332B07B685A7A9B7A1B0213439AB23B1C1033E5
S11332C09A803B1C1F3300221A7014E03B1C1F33EE
S11332D01A78B969131C9B009B18CB1801331A7810
S11332E07B685B789A420ED03B1C1F333A1C1F321A
S11332F0127801321A70BB691B783A1C1F3212789B
S11333009A42E3D300E0C0463B1C1F331A78391CB1
S113331017313E48131CDB009B189B00C318DB7855
S11333200B707B681B7A002B13D13B1C1F331A785C
S11333303649131CDB009B189B00CB189B78013388
S1133340D9B23248131CDB009B189B00C3180A1C1B
S11333509A703B1C1F331A78391C16312B48131CE6
S1133360DB009B189B00C3189B780B703A1C163229
S11333703B1C173312781B789A4228D03B1C1F330E
S11333801A783B1C1633197803230B40391C083177
S11333901E48DC00131CDB009B189B00E21804236E
S11333A08218D2180B1C03CA03C33B1C08331878B9
S11333B03B1C083359783B1C08335A889B881B04F0
S11333C013431A1C3B1C0833DB8800F063FF104BCB
S11333D01B68002B16D07B681B7A002B09D00C4B82
S11333E01B687A6811787A680832081C05219847A6
S11333F008E0074B1B687A6811783A1C1032081CE5
S113340003219847BD4609B090BDC0468004002002
S11334107804002080B584B000AF78607B681A79A6
S1133420597909020A43997909040A43DB791B068D
S113343013431A1C3B1C08331A607B685A7A9B7A24
S11334401B0213439AB23B1C08339A800E4B1B6831
S1133450002B16D07B681B7A002B09D00A4B1B6803
S11334607A6811787A680832081C0521984708E0C0
S1133470054B1B687A6811783A1C0832081C042131
S11334809847BD4604B080BD7804002090B58BB049
S113349002AF3A60FB1D021C1A70BB1D0A1C1A7095
S11334A0FB1D1B78181C02F05FFD031CBB61BB1DD8
S11334B01B78022B00D09BE03B1C1E3300221A70A9
S11334C03B1C173300221A703B1C163300221A705F
S11334D03B1C1733BA6912781A703B1C1E333A1C12
S11334E0163212781A701AE0BB69591C3B1C1E3341
S11334F01A78131C9B009B18CB183B613B691A7804
S11335003B699B78F91D081C111C1A1C02F00EFF64
S11335103B1C1E333A1C1E32127801321A703B1CBB
S11335201E331A783B1C173319783B1C16331B784F
S1133530CB189A42D8DB3B1C1E333A1C1632127845
S11335401A7048E0BB69591C3B1C1E331A78131CC3
S11335509B009B18CB18FB60FB681978FB68DA7832
S11335601B791B0213439AB2FB689B78F868447872
S1133570F81D00940024019402F074FEFB685B784B
S1133580022B0DD0032B0AD1FB1D1978FB681A7886
S1133590354B081C111C1A1C02F0D0FF01E000E09E
S11335A0C046FB681B7810221343DBB2DAB2FB6817
S11335B09B78DB01DBB21343DBB2DBB2FA1D101CD8
S11335C0191C002202F036FF3B1C1E333A1C1E322B
S11335D0127801321A703B1C1E331A783B1C1733C5
S11335E019783B1C16331B78CB189A42AADB2CE0C3
S11335F0BB1D1B78002B28D13B1C1F3300221A70E3
S11336001CE03B1C1F331A781849131CDB009B1861
S11336109B00CB1800229A703B1C1F331A78134965
S1133620131CDB009B189B00CB180022DA703B1C98
S11336301F333A1C1F32127801321A70BB691B788F
S11336403A1C1F3212789A42DBD3094B1B68002BB9
S113365007D0074B1B68FA1D1078BA1D11783A6819
S11336609847BD4609B090BD193100008004002080
S113367078040020B0B586B000AFB9607A603B60D2
S11336803B1C0F33021C1A703B1C1733CD221A70DB
S1133690BB681B781A1C60231340202B00D085E0E4
S11336A03B1C173300221A70BB685B78232B00D9AC
S11336B078E09A004D4BD3181B689F463B68002264
S11336C01A808BE03B6800221A8087E03C1C173488
S11336D03B1C0F331878B9687A683B6800F090FB9C
S11336E0031C23707AE03C1C17343B1C0F331878FE
S11336F0B9687A683B6800F02DFB031C23706DE009
S11337003B6802221A807B681B6800221A707B685F
S11337101B685A1C7B681A607B681B6800221A703D
S11337203C1C17343B1C0F331878B9687A683B6823
S113373000F066FB031C237050E03C1C17343B1C58
S11337400F331878B9687A683B6800F013FA031CE1
S1133750237043E03C1C17343B1C0F331878B968C2
S11337607A683B6800F032FA031C237036E03C1C94
S113377017343B1C0F331878B9687A683B6800F03B
S113378055FA031C237029E03C1C17343B1C0F33EF
S11337901878B9687A683B6800F0C0FA031C237093
S11337A0C0461BE03B6800221A8017E0BB681B7808
S11337B01A1C60231340402B10D10D4B1B68002BA7
S11337C00CD00B4B1D683C1C17343B1C0F33187872
S11337D0B9687A683B68A847031C23703B1C1733FD
S11337E01B78181CBD4606B0B0BDC04678780000F2
S11337F07C04002090B587B000AFB9607A603B606C
S11338003B1C0F33021C1A703B1C163300221A7027
S11338103B1C0F331B78181C02F0A6FB031C3B61F6
S11338203B691B780133DAB23C1C16343B1C0F3362
S113383019783B1C28331B78081C002102F0E4FC97
S1133840031C23703B1C16331B78002B76D13C1CC5
S113385016343B1C0F3319783C4A3D4B081C111C91
S11338601A1C00F06BFC031C23703B1C1733002252
S11338701A7045E03B1C17331A783B1C1733197830
S113388038690B1C9B005B18C31801331878314945
S1133890131CDB009B189B00021C5A543B1C17335F
S11338A01A783B1C1733197838690B1C9B005B187A
S11338B0C318023319782748131CDB009B189B009C
S11338C0C3180A1C5A703B1C17331A782149131C5D
S11338D0DB009B189B00CB1800229A703B1C17330B
S11338E01A781C49131CDB009B189B00CB18002280
S11338F0DA703B1C17333A1C1732127801321A70F3
S11339003B691B783A1C173212789A42B2D33C1C9A
S113391016343B1C0F331A783B68101C191C00F03A
S113392011F9031C23703B1C16331B78002B05D1A3
S1133930094BBA681A60094B7A681A603B1C163343
S11339401B78181CBD4607B090BDC0468D340000DE
S11339507536000080040020780400207C040020D8
S1133960B0B586B000AF3A601A1CFB1D1870BB1DC1
S113397019703B1D1A803B1C173300221A70FB1D63
S11339801B78181C02F0F0FA031C3B613B1C163335
S113399000221A7014E03B1C16331A783969131C80
S11339A09B009B18CB1801331B78BA1D12789A42DE
S11339B00ED03B1C16333A1C1632127801321A70A0
S11339C03B691B783A1C163212789A42E3D300E022
S11339D0C0463B1C16331A78391C0F315848131C47
S11339E0DB009B189B00C318DB780B703B1C163361
S11339F01A78391C0E315248131CDB009B189B00AB
S1133A00C3189B780B703A1C0F323B1C0E33127890
S1133A101B78D31ADBB2042B00D185E03B1C0D3399
S1133A203A1C0F32117803220A401A703B1C1633D9
S1133A301A783B1C0D331B784149D800131CDB005A
S1133A409B189B00C318FA1DCB1812781A713B1CE3
S1133A5016331A783B1C0D331B783949D800131CD4
S1133A60DB009B189B00C318BA1DCB1812785A713F
S1133A703B1C163319783B1C0D331B78304AD80095
S1133A800B1CDB005B189B00C318391C0888D11879
S1133A90CD8800242C402043C880B91C0888D31842
S1133AA0198900220A40111C021C0A431A813B1C7A
S1133AB016331A783B1C0D331B782149D800131C8C
S1133AC0DB009B189B00C3183A1DCB1812885A813F
S1133AD03B1C16331A783B1C0F33391C0F31097801
S1133AE0013119701649131CDB009B189B003A1C0A
S1133AF00F32CB181278DA703A1C0F323B1C0E339B
S1133B0012781B78D31ADBB2012B11D13C1C173469
S1133B10FB1D1878BB1D19783A683B1D1B8800F003
S1133B20B9FB031C237003E03B1C1733C1221A703A
S1133B303B1C17331B78181CBD4606B0B0BDC046ED
S1133B408004002080B584B000AF021C3960FB1DE6
S1133B501A703B1C0F3300221A70054B3A681A6026
S1133B603B1C0F331B78181CBD4604B080BDC046F7
S1133B70EC04002090B587B000AFB9607A603B6078
S1133B803B1C0F33021C1A70BB681A795B791B0249
S1133B9013439BB2DAB20C4B1A700B4B1A783C1CD1
S1133BA017343B1C0F3319787B68081C111C1A1C32
S1133BB002F0E8F9031C23703B1C17331B78181C14
S1133BC0BD4607B090BDC046F404002090B587B050
S1133BD000AFB9607A603B603B1C0F33021C1A7063
S1133BE03B6800221A80BB681A795B791B02134375
S1133BF09BB2DAB20C4B1A700B4B1A783C1C17347C
S1133C003B1C0F3319783B1C0833081C111C1A1C6D
S1133C1002F0D8F9031C23703B1C17331B78181CC3
S1133C20BD4607B090BDC046F404002080B584B002
S1133C3000AFB9607A603B603B1C0F33021C1A7002
S1133C403B6800221A80BB689A78DB781B02134316
S1133C509BB2DAB22D4B1A702D4B00221A702B4BEB
S1133C601B781A1C022313405A1E9341D9B2284BC5
S1133C7001220A4052001978022081430A431A7033
S1133C80224B1B781A1C022313405A1E9341D9B2AB
S1133C901F4B01220A401978012081430A431A70FC
S1133CA01A4B1B781A1C01231340DBB2002B01D0E2
S1133CB0012300E00023174A13703B1C0F331B78C9
S1133CC0181C00F0F3F8144B1B68002B18D00F4B92
S1133CD01B781A1C0223134009D00F4B1B683A1C93
S1133CE00F321278101C22210022984708E00A4B58
S1133CF01B683A1C0F321278101C212100229847AD
S1133D000023181CBD4604B080BDC046F104002049
S1133D10F8040020F0040020EC04002080B584B0F6
S1133D2000AFB9607A603B603B1C0F33021C1A7011
S1133D303B6800221A80BB689A78DB781B02134325
S1133D409AB2034B1A800023181CBD4604B080BDF0
S1133D50F204002090B587B000AFB9607A603B6090
S1133D603B1C0F33021C1A703B1C173300221A70C1
S1133D703B6802221A80BB681A795B791B021343E1
S1133D809BB2DAB21D4B1A70BB689A78DB781B02BF
S1133D9013439BB2012B0FD1184B1A783C1C1734D8
S1133DA03B1C0F3319787B68081C111C1A1C02F089
S1133DB045F9031C23701AE0BB689A78DB781B0270
S1133DC013439BB2022B0FD10C4B1A783C1C1734B3
S1133DD03B1C0F3319787B68081C111C1A1C02F059
S1133DE04BF9031C237002E03B6800221A803B1C41
S1133DF017331B78181CBD4607B090BDF40400208F
S1133E0090B587B000AFB9607A603B603B1C0F335C
S1133E10021C1A703B1C173300221A703B680222E2
S1133E201A80BB681A795B791B0213439BB2DAB21E
S1133E301D4B1A70BB689A78DB781B0213439BB244
S1133E40012B0FD1184B1A783C1C17343B1C0F3331
S1133E5019787B68081C111C1A1C02F02BF9031C2E
S1133E6023701AE0BB689A78DB781B0213439BB279
S1133E70022B0FD10C4B1A783C1C17343B1C0F330C
S1133E8019787B68081C111C1A1C02F04BF9031CDE
S1133E90237002E03B6800221A803B1C17331B7816
S1133EA0181CBD4607B090BDF404002080B582B054
S1133EB000AF021CFB1D1A70094B1A78094B1A71CA
S1133EC0094B1A78074B1A72FB1D1A78054B101C04
S1133ED003211A1C0A23FFF743FDBD4602B080BD2F
S1133EE0F404002000000020F804002080B582B013
S1133EF000AF78607A68074B101C01211A1C02F08D
S1133F0057FA7B68181C0121802202F093FABD46FF
S1133F1002B080BD0005002080B584B000AF786099
S1133F207A683B1C0F33101C01211A1C02F040FA62
S1133F303B1C0F331B78802B07D17A68044B1B780A
S1133F40101C01211A1C02F075FABD4604B080BD94
S1133F500005002080B582B000AF78607B685B7894
S1133F60002B0DD17A687B68DB78DB01DBB2102192
S1133F700B43DBB2DBB2101C191C002202F05AFA0C
S1133F80BD4602B080BDC04680B584B000AF786045
S1133F907B681A79597909020A43997909040A4311
S1133FA0DB791B0613431A783B1C0E331A803B1C27
S1133FB00E333A1C0E32128812021A807B681A7968
S1133FC0597909020A43997909040A43DB791B06E2
S1133FD0134301331B78191C3B1C0E333A1C0E325D
S1133FE012880A431A807A683B1C0E331B88DBB2A2
S1133FF0101C05211A1C02F01DFABD4604B080BD38
S1134000B0B586B002AF78603B1C083301229A70C9
S11340103B1C083300221A703B1C0833D978002259
S11340200A4010210A43DA70197900220A401A71F1
S11340303B1C083300225A7079683B1C08331A78F9
S11340403B1C08339B783C1C0F34081C111C1A1CA5
S113405002F06CF9031C237078683B1C0833197850
S11340603B1C0833DA781B791B0213439AB23B1CBE
S113407008339B783C1C083465783C1C0F3400954D
S11340800125019502F0EEF8031C23703B1C083354
S113409000229A7079683B1C08331A783B1C083359
S11340A09B78081C111C1A1C02F040F978683B1C10
S11340B0083319783B1C0833DA781B791B02134345
S11340C09AB23B1C08339B783C1C083464780094F7
S11340D00124019402F0C6F87B68181C0121022215
S11340E002F0A8F97B68181C0621012202F0A2F94B
S11340F07B68181C9021002202F09CF9054B1B6878
S11341007A681278101C002100229847BD4604B03A
S1134110B0BDC046FC04002080B582B000AF78601A
S1134120054B1B687A6811787A680832081C0521E7
S11341309847BD4602B080BDFC04002090B587B00E
S113414000AFB9607A603B1C0F33021C1A703B1C31
S11341500F3319783C1C1734BA687B68081C111C8F
S11341601A1C02F027FA031C2370424BBA681A6027
S11341703B1C17331B78002B75D13B1C0F331A786B
S11341803D4B101C10211A1C02F0D8F9031C191CF9
S11341903B1C17333A1C173212780A431A703B1C23
S11341A00F331A78354B101C12211A1C02F0C6F971
S11341B0031C191C3B1C17333A1C173212780A4390
S11341C01A703B1C0F331A782D4B101C14211A1C27
S11341D002F0B4F9031C191C3B1C17333A1C1732A8
S11341E012780A431A703B1C0F331A78254B101CA3
S11341F013211A1C02F0A2F9031C191C3B1C1733CF
S11342003A1C173212780A431A703B1C0F331A787F
S11342101D4B101C17211A1C02F090F9031C191CC9
S11342203B1C17333A1C173212780A431A703B1C92
S11342300F331A78154B101C16211A1C02F07EF944
S1134240031C191C3B1C17333A1C173212780A43FF
S11342501A703B1C0F33181C0121032202F0EAF8E8
S11342600B4B03221A703B1C17331B78181CBD46DA
S113427007B090BDFC04002001400000893F00000D
S1134280ED3E0000193F0000553F000019410000B9
S11342900005002090B585B000AF3A601A1CFB1DE4
S11342A01870BB1D19703B1D1A803B1C0F33002274
S11342B01A70FA1D3B1C0E33101C01211A1C02F04B
S11342C077F8FA1D3B1C0D33101C06211A1C02F052
S11342D06FF83B1C0E331B78802B1ED13B1C0D3317
S11342E01B781A1C0223134017D0FB1D1B78181CC3
S11342F001F02EFE031C012B0FD172B6FB1D181CFE
S113430000F0C4FF3B1C0E3300221A70FB1D181C66
S11343100121002202F08EF862B63B1C0E331B789A
S1134320802B0BD03B1D1B883C1C0F34F81DBA1D81
S113433011783A6800F0DAFE031C23703B1C0F333B
S11343401B78181CBD4605B090BDC04680B500AFB3
S1134350BD4680BD80B500AF2D4A8823BF21D1540E
S11343602B4A2B499423CB5CDBB202210B43D9B2F9
S11343709423D154264A98230021D154244A8023DB
S11343805B000021D154234A90239B00101C191C6C
S1134390FF2201F0AFFC204B1A688023DB00101CC5
S11343A0191C002201F0A6FC1B4B1B68802189000C
S11343B05A181A4B1A601A4BFF221A70144A1449DD
S11343C09423CB5CDBB202218B43D9B29423D15426
S11343D00F4A0F4986235B00CB5CDBB240210B43C1
S11343E0D9B286235B00D154094A8C23BF21D1540E
S11343F0074A84239F21D154054A05499423CB5C61
S1134400DBB220218B43D9B29423D154BD4680BD65
S11344100020074008050020040500204C07002068
S11344200C00002080B584B000AFFB1D1870BB1DCC
S113443019707B1D1A703B1C0F33FF221A70FB1D71
S11344401B78062B14D8FB1D1B789B00D9B23B1C90
S11344500F337A1D12788A181A70BB1D1B78012B32
S113446006D13B1C0F333A1C0F32127802321A70F9
S11344703B1C0F331B78181CBD4604B080BDC046DE
S113448090B585B000AFFB1D1870BB1D19707B1D66
S11344901A703C1C0F34FB1D1978BB1D1A787B1D48
S11344A01B78081C111C1A1CFFF7BCFF031C23708B
S11344B03B1C0F331B78FF2B12D03B1C0F331B7894
S11344C05B08DBB21A1C0A49131CDB009B185B0057
S11344D05A5A084B9A4203D13B1C0F33FF221A70DD
S11344E03B1C0F331B78181CBD4605B090BDC0465D
S11344F008050020FFFF000090B585B000AF78608C
S113450039603B689A79D97909020A43197A09040E
S11345100A435B7A1B0613431A1C3B68197B5B7BBB
S11345201B020B439BB2D318BB603B1C0E3300220F
S11345301A803B689A7ADB7A1B0213439BB21A1CDB
S11345403B68197B5B7B1B020B439BB2D21A3B6813
S113455019785B781B020B439BB29A4208DD3A1C24
S11345600E323B6819785B781B020B4313800FE013
S11345703B689A7ADB7A1B02134399B23B681A7B35
S11345805B7B1B0213439AB23B1C0E338A1A1A80BC
S11345907B683A1C0E3211789C780020204001433D
S11345A099705278D878002101400A43DA70BA68C9
S11345B07B68FF2111401C790020204001431971C0
S11345C0100AFF2101405C79002020400143597109
S11345D0100CFF2101409C79002020400143997177
S11345E0120ED879002101400A43DA71BD4605B0A4
S11345F090BDC04680B582B000AF0A1CFB1D011CF3
S11346001970BB1D1A70544A80235B000021D154D9
S1134610524BFA1D12781A70514A90239B00101CB9
S1134620191CFF2201F066FB4E4B4F4A1A604D4B9A
S11346301A688023DB00101C191C002201F05AFBAD
S1134640454A454986235B00CB5CDBB28021494265
S11346500B43D9B286235B00D154C0463E4A86231D
S11346605B00D35CDBB2DBB25BB2002BF6DB3F4B0F
S1134670FF221A70384A384986235B00CB5CDBB2D0
S113468040210B43D9B286235B00D154BB1D1B7858
S1134690002B07D0364B364A1268802109060A439C
S11346A01A6005E0324B324A1268520052081A600E
S11346B0294A2C4B1B681B0ADBB201218B43D9B25C
S11346C09C23D154244A274B1B681B0CD9B2B0231A
S11346D0D154214A234B1B681B0ED9B2B423D154A5
S11346E0204B1B68802189005A18224B1A601A4AF1
S11346F084235B001021D154174A94230121D154FF
S1134700154A8023BF21D154134A134980235B00E7
S1134710CB5CD9B27F230B40D9B280235B00D15448
S11347200D4A0D498423CB5CDBB201210B43D9B282
S11347308423D154084A08498423CB5CDBB210217A
S11347400B43D9B28423D154034B84221A77002318
S1134750181CBD4602B080BD002007404807002059
S11347600805002004050020000800200C0000209B
S1134770007004404C07002090B589B000AF396048
S1134780FB1D011C1970BB1D1A703B1C1F333A68BA
S113479012781A703B1C1E333A6892781A703B1CCC
S11347A00C33B64A03CA03C33B68DA781B791B028D
S11347B013439AB280239B009A420AD93B68D97862
S11347C000220A40DA70197900220A4002210A43C1
S11347D01A713C1C1D343B1C1F331A783B1C1E33BE
S11347E01B78101C191C0022FFF71CFE031C2370ED
S11347F03B1C1C333A1C1D32127852081A703B1CA5
S11348001D331B78FF2B13D03B1C1C331A789C4997
S1134810131CDB009B185B005A5A9A4B9A4207D12F
S11348203B685B78032B03D83B689B78012B01D949
S113483095234DE13B1C1C331A78131CDB009B1899
S11348405B001A1C8E4BD318BB61BB69DB7BFF2B4F
S113485002D1BB690022DA733B68DA781B791B0248
S113486013439AB2BB69FF2111401C7800202040F9
S113487001431970120A92B25878002101400A4388
S11348805A70BB69BA1D12789A73BB69DA7B01232B
S11348901340DAB2BB69DA73BB69DB7BDAB23B1C67
S11348A01E331B785B00D9B23B1C1F331B789B0063
S11348B0DBB20B43DBB21343DBB2DAB2BB69DA73AC
S11348C0714B1A68BB69FF2111409C78002020407D
S11348D001439970100AFF210140DC780020204038
S11348E00143D970100CFF2101401C7900202040A5
S11348F001431971120E5879002101400A435A717B
S11349003B685A78BB695A74BB693A1C1E321278E8
S11349101A745E4B1B681A1CBB69DB7BDB00D31863
S11349207B613B68DA781B791B0213439AB27B697B
S1134930FF2111409C780020204001439970120A05
S113494092B2D878002101400A43DA704E4B1A68BB
S11349507B69FF2111401C7900202040014319711B
S1134960100AFF2101405C79002020400143597165
S1134970100CFF2101409C790020204001439971D3
S1134980120ED879002101400A43DA717B690822AA
S11349901A703E4B1B681A1CBB69DB7B01214B4020
S11349A0DBB2DB00D3187B613B68DA781B791B022E
S11349B013439AB27B69FF2111409C780020204068
S11349C001439970120A92B2D878002101400A4337
S11349D0DA702D4B1A687B69FF2111401C79002085
S11349E0204001431971100AFF2101405C79002025
S11349F0204001435971100CFF2101409C79002093
S1134A00204001439971120ED879002101400A43D4
S1134A10DA717B6948221A703B68DA781B791B02C9
S1134A2013439BB21A1C184B1B68D218164B1A60FE
S1134A303B1C1E331B78002B0FD1144B1B681A1C14
S1134A40BB69DB7BDB00D3187B617B691B7880222D
S1134A5052421343DAB27B691A703B1C1E331A7834
S1134A603B1C1E3319783B1C0C338900C9583B6826
S1134A705B78012B0CD001230BE0C046707800005A
S1134A8008050020FFFF00004C070020040500205B
S1134A90002319433B1C0C339200D1503B1C1F33A1
S1134AA01B789B000C4A9B183A1C1F321278920008
S1134AB0094812181278D1B23A1C1E3210783A1CE6
S1134AC00C3280008258D2B20A43D2B21A70002348
S1134AD0181CBD4609B090BDC020074090B587B0F2
S1134AE000AF7860FB1C1970BB1C1A703B1C173399
S1134AF0C4221A703C1C1634FB1C1A78BB1C1B788D
S1134B00101C191C0022FFF7BBFC031C23703B1C68
S1134B1015333A1C1632127852081A703B1C16339D
S1134B201B78FF2B3AD03B1C15331A78131CDB007F
S1134B309B185B001A1C1D4BD3183B611C4B1B6854
S1134B401A1C3B69DB7BDB00D318FB60184B1B682A
S1134B501A1C3B69DB7B01214B40DBB2DB00D31821
S1134B60BB60FB681A787F231340DAB2FB681A70C3
S1134B70BB681A787F231340DAB2BB681A703B69AA
S1134B809A7A012149420A439A72DA7A0121494206
S1134B900A43DA723B1C173300221A703B1C17338A
S1134BA01B78181CBD4607B090BDC0460805002000
S1134BB00405002090B585B000AFFB1D1870BB1D27
S1134BC019707B1D1A703C1C0F34BB1D1A787B1D99
S1134BD01B78101C191C0022FFF752FC031C2370C5
S1134BE03B1C0E333A1C0F32127852081A703B1CCD
S1134BF00F331B78FF2B01D196233EE0F91DBB1D1B
S1134C001A787B1D1B78081C111C1A1CFFF766FF01
S1134C101C4B19683B1C0E331A781B48131CDB0011
S1134C209B185B001B5ACA1A164B1A60BB1D1B78D3
S1134C309B00164A9B1800221A703B1C0E331A78EC
S1134C401149131CDB009B185B00012252425A528B
S1134C503B1C0E3319780C4A0B1CDB005B185B0001
S1134C60D11848880124644220434880D3189A8884
S1134C70012149420A439A800023181CBD4605B00D
S1134C8090BDC0464C07002008050020C020074006
S1134C9090B585B000AF7860FB1C1970BB1C1A700E
S1134CA03C1C0F34FB1C1A78BB1C1B78101C191CF1
S1134CB00022FFF7E5FB031C23703B1C0F331B781A
S1134CC05B08DBB21A1C131CDB009B185B001A1C6C
S1134CD0154BD318BB603B1C0F33BA68D27B1A70D8
S1134CE03B1C0F331B78FF2B1BD07968FB1C1A78F5
S1134CF0BB1C1B78081C111C1A1CFFF7EFFE0B4B86
S1134D001A683B1C0F331878084B1B68391C0F3189
S1134D100978C900CB5C7C2149420B43D9B2C3005A
S1134D209954BD4605B090BD080500200405002037
S1134D3090B587B000AF7860FB1C1970BB1C1A706B
S1134D403C1C1734FB1C1A78BB1C1B78101C191C48
S1134D500022FFF795FB031C23703B1C17331B78C1
S1134D605B08DBB21A1C131CDB009B185B001A1CCB
S1134D70344BD3183B613B1C17333A69D27B1A700E
S1134D803B1C17331B78FF2B58D0FB1C1B789B0054
S1134D902D4A9B18FB60FB1C1B78002B23D03B691E
S1134DA05B7C012B01D0012300E000233A1C0B3271
S1134DB01370BB1C1B78012B01D1142300E01823B2
S1134DC03A1C0B3211781A1C0B1C1343DAB23B1C2D
S1134DD00B331A70FB681A783B1C0B331B78134394
S1134DE0DAB2FB681A70FB681A7802218A431A70D7
S1134DF0164B1A683B1C17331878144B1B68391C64
S1134E0017310978C900C95C7B230B40D9B2C300B0
S1134E1099540E4B1B683A1C17321278D2000021A9
S1134E20D154BB1C1B78002B08D17A68FB1C1B785F
S1134E30101C191C0022002300F00AF8BD4607B01C
S1134E4090BDC04608050020C0200740040500208E
S1134E5090B589B000AFF8607A603B603B1C0B33BF
S1134E600A1C1A703B1C1F3394221A703C1C1E34FB
S1134E703B1C0B331B78181C00210022FFF700FB9E
S1134E80031C23703B1C1E331B785B08DBB21A1C0B
S1134E90131CDB009B185B001A1C914BD318BB61DD
S1134EA03B1C1E33BA69D27B1A703B1C1E331B7821
S1134EB0FF2B00D10DE18B4B1B681A1C3B1C1E33CE
S1134EC01B7801214B40DBB2DB00D3187B6100234C
S1134ED03B61BB691A785B781B0213439AB2824B1D
S1134EE09A4200D1F5E07B691B787F229343DBB2C1
S1134EF0002B00D0EDE03B68002B57D1794B1B68A9
S1134F001A1C3B1C1E331B78DB00D3183B61BB69A6
S1134F101A785B781B0213439AB23B69FF21114054
S1134F209C780020204001439970120A92B2D878EC
S1134F30002101400A43DA70BB699A78D9780902E2
S1134F400A43197909040A435B791B0613431A1CA3
S1134F503B69FF2111401C79002020400143197155
S1134F60100AFF2101405C7900202040014359715F
S1134F70100CFF2101409C790020204001439971CD
S1134F80120ED879002101400A43DA713B691B787B
S1134F905B06DB0FDBB29B01DBB278225242134388
S1134FA0DBB2DAB23B691A70002395E03B689AB22F
S1134FB0BB69FF2111409C7A002020400143997273
S1134FC0120A92B2D87A002101400A43DA72BB690C
S1134FD03A1D12789879002101400A439A717A1D8A
S1134FE01278D879002101400A43DA71BA1D127887
S1134FF0187A002101400A431A72FA1D1278587A6D
S1135000002101400A435A72BB691A785B781B027B
S113501013439BB21A1C3B689A4206D2BB691A78A6
S11350205B781B0213439BB23B60BB69197B002274
S11350300A401A73597B00220A405A73294B1B6891
S11350401A1C3B1C1E331B78DB00D3183B613B68E6
S11350509AB23B69FF2111409C7800202040014313
S11350609970120A92B2D878002101400A43DA708A
S11350707A683B69FF2111401C79002020400143DC
S11350801971100AFF2101405C790020204001437E
S11350905971100CFF2101409C79002020400143EC
S11350A09971120ED879002101400A43DA713B69E3
S11350B01B785B06DB0FDBB29B01DBB2782252422A
S11350C01343DBB2DAB23B691A703B1C1F33002274
S11350D01A703B1C1F331B78181CBD4609B090BDC9
S11350E00805002004050020FFFF000090B589B0EA
S11350F000AFF8607A603B603B1C0B330A1C1A70EB
S11351003B1C1F3393221A703C1C1E343B1C0B3374
S11351101B78181C01210022FFF7B2F9031C23702D
S11351203B1C1E331B785B08DBB21A1C131CDB0010
S11351309B185B001A1C454BD318BB613B1C1E33E8
S11351401B78FF2B01D193237BE03B1C1E33BA69F0
S1135150D27B1A703E4B1B681A1C3B1C1E331B78F7
S1135160DB00D3187B617B691B787F229343DBB21E
S1135170002B63D13B1C0B331B789B00354A9B18D7
S11351801B78DBB21A1C0223134057D13B689AB236
S1135190BB69FF2111409C7A002020400143997291
S11351A0120A92B2D87A002101400A43DA72BB692A
S11351B03A1D12789879002101400A439A717A1DA8
S11351C01278D879002101400A43DA71BA1D1278A5
S11351D0187A002101400A431A72FA1D1278587A8B
S11351E0002101400A435A72BB69197B00220A401C
S11351F01A73597B00220A405A737A69BB69101CDE
S1135200191CFFF779F93B1C0B331B78002B03D1D6
S11352107B69C8221A700DE07B691B785B06DB0F83
S1135220DBB29B01DBB2782252421343DBB2DAB227
S11352307B691A703B1C1F3300221A703B1C1F33FE
S11352401B78181CBD4609B090BDC0460805002057
S113525004050020C020074080B582B000AF78600C
S11352600A1CFB1C1A70074AF91C98230978D154AC
S1135270054B181C0121012201F0DCF8BD4602B0E7
S113528080BDC046002007404807002080B584B098
S113529000AF78602F4A2F4980235B00CB5CD9B2E2
S11352A07F230B40D9B280235B00D154294A29497A
S11352B086235B00CB5CDBB220218B43D9B28623EF
S11352C05B00D154234A23498023CB5CDBB22021E9
S11352D00B43D9B28023D1541E4A1E498423CB5C8C
S11352E0DBB220218B43D9B28423D154194A194902
S11352F09423CB5CDBB220218B43D9B29423D154C9
S1135300144A14499423CB5CDBB204210B43D9B275
S11353109423D1543B1C0E330F4A1A803B1C0E338A
S11353203A1C0E321288013A1A8001F075FE3B1CB9
S11353300E331B88002BF1D1064A06499423CB5C1B
S1135340DBB204218B43D9B29423D154BD4604B0BB
S113535080BDC04600200740409CFFFF90B589B047
S113536000AF021C3960FB1D1A703B1C1F33002266
S11353701A700023BB6100237B6100233B61FB1D8A
S11353801A78042313409A103B1C0F331A70FB1D28
S11353901A7808231340DB10DAB23B68DA703B68F2
S11353A059783B68DA783C1C1F343B1C0F331B785C
S11353B0081C111C1A1CFFF735F8031C2370AB4B97
S11353C01B681A1C3B1C1F331B78DB00D318BB6102
S11353D0A64B1B681A1C3B1C1F331B7801214B4036
S11353E0DBB2DB00D3187B613B1C1F331B785B08EB
S11353F0DBB21A1C131CDB009B185B001A1C9C4BB1
S1135400D3183B61BB691A79597909020A4399791E
S113541009040A43DB791B0613431A1C3B68FF216A
S113542011401C790020204001431971100AFF210A
S113543001405C790020204001435971100CFF2188
S113544001409C790020204001439971120ED879C3
S1135450002101400A43DA71BB699A78DB781B02A8
S113546013439AB23B68FF2111405C7A002020402C
S113547001435972120A92B2987A002101400A43F8
S11354809A723B69DA7B3B1C1F3301214A401A7034
S11354903B693A1C1F321278DA73BB691B785B06CE
S11354A0DB0FDBB201225340DBB29B01DAB27B6932
S11354B01A703B68DB78012B00D0B7E03B685B785F
S11354C0002B16D16B4B1B78002B12D1694BFF229A
S11354D01A703B68181C00210022FFF7FFFA7B6951
S11354E000221A703B68181C002100220023FFF7D9
S11354F0AFFC604B1B78012B04D03B685B78002B1E
S113550000D139E23B691A7B5B7B1B0213439AB2DD
S11355103B68597A9B7A1B020B439BB2D3189AB20D
S11355203B69FF2111401C7B00202040014319737B
S1135530120A92B2587B002101400A435A733B6914
S11355409A7ADB7A1B0213439AB23B69197B5B7B21
S11355501B020B439BB29A4213D83B685A7A9B7A3C
S11355601B0213439BB2DBB21A1C3B6919785B78AC
S11355701B020B439BB29A4218D13B699B7B012BC4
S113558014D17A693B69101C191CFEF7B5FF7B69BD
S11355901B785B06DB0FDBB29B01DBB27822524245
S11355A01343DBB2DAB27B691A70EDE13B699A7995
S11355B0D97909020A43197A09040A435B7A1B065A
S11355C013431A1C3B68FF2111401C790020204022
S11355D001431971100AFF2101405C790020204029
S11355E001435971100CFF2101409C790020204097
S11355F001439971120ED879002101400A43DA71EE
S11356003B691A7B5B7B1B0213439AB23B68FF2105
S113561011405C7A0020204001435972120A92B270
S1135620987A002101400A439A72A5E13B685B78AD
S1135630002B38D1BB691A783C231340DBB2342BDE
S11356401AD13B6801229A703B681A795979090288
S11356500A43997909040A43DB791B0613431B782F
S1135660DB09DAB2034B1A701DE0C04604050020C2
S1135670080500200C000020C54B1B78012B12D11B
S1135680C34BFF221A703B68181C00210122FFF74C
S113569025FA7B6900221A703B68181C002100223D
S11356A00023FFF7D5FB3B699A7ADB7A1B0213438D
S11356B09AB2B84B9A4200D15EE13A1C0C323B6874
S11356C0597A9B7A1B020B4313803B691A7B5B7BE1
S11356D01B0213439AB23B1C0C331B88D3189AB297
S11356E03B69FF2111401C7B0020204001431973BA
S11356F0120A92B2587B002101400A435A733B6953
S11357001A785B781B0213439BB23A1C0C32128842
S11357109A420DD13B699A7ADB7A1B0213439AB2FF
S11357203B69197B5B7B1B020B439BB29A4222D8D9
S11357303B699A7ADB7A1B0213439BB2002B00D19C
S1135740D0E03B699A7ADB7A1B0213439AB23B6935
S113575019785B781B020B439BB2101C191CFAF7D7
S11357609BFE0B1C9BB2002B00D0BBE03B699B7BD8
S1135770012B00D0B6E03B699A7ADB7A1B02134313
S11357809BB21A1C3B69197B5B7B1B020B439BB2CC
S1135790D21A3B6919785B781B020B439BB29A427D
S11357A006DD3B691A785B781B0213439BB20DE05C
S11357B03B699A7ADB7A1B0213439AB23B69197BE1
S11357C05B7B1B020B439BB2D31A9BB23A1C0A327B
S11357D013803B1C0A331B88002B33D13B699A7816
S11357E0D97809020A43197909040A435B791B062B
S11357F013431A1C7B69FF2111401C7900202040AF
S113580001431971100AFF2101405C7900202040F6
S113581001435971100CFF2101409C790020204064
S113582001439971120ED879002101400A43DA71BB
S11358307B69997800220A409A70D97800220A403C
S1135840DA7040E03B699A79D97909020A43197AF6
S113585009040A435B7A1B0613431A1C3B69197B30
S11358605B7B1B020B439BB2D3181A1C7B69FF2181
S113587011401C790020204001431971100AFF21B6
S113588001405C790020204001435971100CFF2134
S113589001409C790020204001439971120ED8796F
S11358A0002101400A43DA717B693A1C0A321178FB
S11358B09C7800202040014399705278D8780021C8
S11358C001400A43DA707B691B785B06DB0FDBB2AD
S11358D09B01DBB2782252421343DBB2DAB27B691A
S11358E01A7051E03B699A79D97909020A43197A05
S11358F009040A435B7A1B0613431A1C3B68FF2105
S113590011401C790020204001431971100AFF2125
S113591001405C790020204001435971100CFF21A3
S113592001409C790020204001439971120ED879DE
S1135930002101400A43DA713B691A7B5B7B1B023D
S113594013439AB23B68FF2111405C7A0020204047
S113595001435972120A92B2987A002101400A4313
S11359609A723B699A7A012149420A439A72DA7A15
S1135970012149420A43DA723B685A783B68101C99
S1135980191C00F0EBFDC046BD4609B090BDC046F1
S11359900C000020FFFF000080B588B000AFD249A2
S11359A03B1C1F3380228A5C1A70CF493B1C1E3378
S11359B084228A5C1A703B1C1D333A1C1F32391C2A
S11359C01E31127809780A401A70C7493B1C1C33EF
S11359D090228A5C1A70FB1DFF221A70C34B1A783E
S11359E03B1C08331A703B1C083300229A703B1C82
S11359F0083300225A603B1C08339968BC4A0A40A9
S1135A009A603B1C08330022DA703B1C08330022E6
S1135A101A723B1C0833FF225A70B44AFB1D101C37
S1135A2001211A1C00F0C4FCAF4A86235B00D35C3E
S1135A30DBB21A1C01231340DBB2002B1BD0FB1D6D
S1135A401B78802B17D1A84AA74980235B00CB5C25
S1135A50D9B27F230B40D9B280235B00D154A24A30
S1135A60A14986235B00CB5CDBB220218B43D9B2F6
S1135A7086235B00D1543B1C1D331A780423134046
S1135A8031D0994AA423D35CDAB23B1C1A331A806E
S1135A903B1C183308221A80934AA023D35CDAB241
S1135AA03B1C16331A80904A80230421D1543B1C9A
S1135AB01A331A883B1C18331B88111C99400B1C81
S1135AC09AB23B1C16331B8813439BB29AB23B1DFC
S1135AD01A803B1C08333A1D5A603B1C08331220C1
S1135AE0191C00F03BFD3B1C1D331A7801231340A5
S1135AF0DBB2002B16D07C4A80230121D154FEF75F
S1135B0029FC3B1C08331020191C00F027FD764AA1
S1135B1075499423CB5CDBB220218B43D9B2942307
S1135B20D154DDE03B1C1D331A78082313401ED0EA
S1135B306D4A80230821D1543B1C1C331B781B095C
S1135B40DAB23B1C08335A703B1C1C331A783B1CDA
S1135B500833101C191CFFF701FC634A62499423A3
S1135B60CB5CDBB220218B43D9B29423D1543B1CB0
S1135B701D331A78022313402ED05B4A802302215E
S1135B80D15459493B1C1F3388228A5C1A705649E8
S1135B903B1C1E338C228A5C1A703B1C1F333A1C3C
S1135BA01E321B7812781340DAB23B1C08331A7287
S1135BB03B1C08331620191C00F0D0FC4A4A8823E9
S1135BC0BF21D154484A48499423CB5CDBB22021FD
S1135BD08B43D9B29423D1543B1C1D331A78102320
S1135BE0134030D0404A80232021D1543E4A8023A0
S1135BF01021D1543B1C08331420191C00F0AEFCB6
S1135C00394A394986235B00CB5CDBB220210B4344
S1135C10D9B286235B00D154334A334980235B00D5
S1135C20CB5CDBB2802149420B43D9B280235B00B9
S1135C30D1542D4A2C498423CB5CDBB220210B4365
S1135C40D9B28423D1543B1C1D331A78202313402A
S1135C5013D0254A80232021D1543B1C0833132020
S1135C60191C00F07BFC204A1F498423CB5CDBB267
S1135C7020218B43D9B28423D1543B1C1D331B7880
S1135C805BB2002B2BDA3B1C0833FF225A703A1C00
S1135C900832FB1C101C10211A1C00F089FBFB1C91
S1135CA01B78012B07D13B1C083300225A703B1C84
S1135CB008330122DA700C4A80238021D1543B1C22
S1135CC008331720191C00F049FC074A064994239D
S1135CD0CB5CDBB220218B43D9B29423D154C04690
S1135CE0BD4608B080BDC0460020074048070020DC
S1135CF0FF0000FF80B584B000AFF860B960FB1D01
S1135D001A70FB1D1A78F968BB68081C111C1A1C50
S1135D1001F0B5F9BD4604B080BDC04690B585B06C
S1135D2000AF041C081C111C1A1CFB1D1C70BB1D9D
S1135D3018707B1D1970BB1C1A80BB1D1B78032BAC
S1135D4000D078E0BB1C1B88002B09D14A4B1A6891
S1135D503B6A1A60484B1B791A1C7B6A1A8085E0DF
S1135D603B1C0F3300221A703B1C0E3301221A70A5
S1135D7023E03B1C0F3319783F4A0B1C9B005B1834
S1135D805B00D1184979D3189B791B020B439BB252
S1135D90BA1C12889A4209D17B1D1B78022B12D897
S1135DA03B1C0E337A1D12781A700CE03B1C0F3327
S1135DB03A1C0F32127801321A703B1C0F331B78D5
S1135DC0002BD6D000E0C0463B1C0F3319782A4A7A
S1135DD00B1C9B005B185B00D118C979D018008993
S1135DE000020143D3189B7A1B060B431A1C3B1C6D
S1135DF00E331B789B00D3181A683B6A1A603B1C4D
S1135E000F3319781C4A0B1C9B005B185B00D118DC
S1135E10C97AD018808900020143D3189B7B1B06E2
S1135E200B431A1C3B1C0E331B78D3181B781A1C0B
S1135E307B6A1A801AE0BB1D1B78072B14D8BB1D84
S1135E401A780E4B9200D2583B6A1A603B6A1B6860
S1135E50002B01D1CD230AE0BB1D1A78084B520058
S1135E60D25A7B6A1A8001E0CD2300E00023181C7B
S1135E70BD4605B090BDC0465C790000287900009D
S1135E801879000080B582B000AF3A60FB1D021C97
S1135E901A70BB1D0A1C1A70BB1D1B78012B07D876
S1135EA0BB1D1B78054AD25C3B681A70002300E0D6
S1135EB0CD23181CBD4602B080BDC0465807002043
S1135EC080B582B000AFFB1D1870BB1D19707B1D1F
S1135ED01A70BB1D1B78012B07D8BB1D1B78054A04
S1135EE0791D0978D154002300E0CD23181CBD4648
S1135EF002B080BD5807002080B584B000AF0A1CF2
S1135F00FB1D011C19703B1D1A803B1C0F33002222
S1135F101A7011E03B1C0F331B780C4AD35C3A1DFA
S1135F2012889A4201D101230CE03B1C0F333A1C26
S1135F300F32127801321A703B1C0F331B78012B7D
S1135F40E8D90023181CBD4604B080BD7879000050
S1135F5080B582B000AF021CFB1D1A700023181C10
S1135F60BD4602B080BDC04680B582B000AF021C01
S1135F70FB1D1A70024B181CBD4602B080BDC04602
S1135F800879000080B582B000AF3A60FB1D021CA6
S1135F901A70BB1D0A1C1A70BB1D1B78012B0AD872
S1135FA0BB1D1A78131CDB009A1A054BD2183B68E8
S1135FB01A60002300E0CD23181CBD4602B080BD4A
S1135FC0EC00002090B585B000AF3A60FB1D021CC8
S1135FD01A70BB1D0A1C1A70BB1D1B78012B26D816
S1135FE03B1C0F3300221A701AE0BB1D1A783B1CAD
S1135FF00F331C783B6819683B1C0F331B7808333C
S1136000CB1818780C49131CDB009B1A1B19021CB3
S11360105A543B1C0F333A1C0F32127801321A7057
S11360203B1C0F331B78062BDFD9002300E0CD2364
